:020000040800F2
:10000000483B002041020008692B0008F726000841
:10001000652B0008290E0008673200080000000068
:10002000000000000000000000000000A90100081E
:100030002D0E000800000000ED010008912D0008C1
:100040005B0200085B0200085B0200085B0200081C
:100050005B0200085B0200085B0200085B0200080C
:100060005B0200085B0200085B0200085B020008FC
:100070005B0200085B0200085B0200085B020008EC
:100080005B0200085B0200085B0200085B020008DC
:100090005B0200085B0200085B0200085B020008CC
:1000A0005B0200085B0200085B0200085B020008BC
:1000B0005B0200085B0200085B0200085B020008AC
:1000C0005B0200085B0200085B0200085B0200089C
:1000D0005B0200085B0200085B0200085B0200088C
:1000E0005B0200085B0200085B02000800F002F8F7
:1000F00000F04AF80AA090E8000C82448344AAF178
:100100000107DA4501D100F03FF8AFF2090EBAE875
:100110000F0013F0010F18BFFB1A43F0010318473B
:10012000F844000018450000103A24BF78C878C190
:10013000FAD8520724BF30C830C144BF04680C60ED
:10014000704700000023002400250026103A28BF35
:1001500078C1FBD8520728BF30C148BF0B60704739
:10016000642900F0F780732900F0118200207047A5
:100170001FB59DE8030000F049FC00F03BFA1FBDED
:1001800010B500F0A0FA10BD00F003FB1146FFF718
:10019000EFFF03F099F900F007FC03B4FFF7F0FF5D
:1001A00003BC00F0A5FD0000224B19680868B0E808
:1001B000F00F80F30988BFF36F8F4FF0000080F3DA
:1001C00011884EF00D0E70470000000006480068D0
:1001D000006880F3088862B661B6BFF34F8FBFF343
:1001E0006F8F00DF00BF00BF08ED00E0EFF3098074
:1001F000BFF36F8F0F4B1A6820E9F00F106008B53E
:100200004FF0BF0080F31188BFF34F8FBFF36F8FA4
:1002100003F0E2FE4FF0000080F31188BDE80840D3
:1002200019680868B0E8F00F80F30988BFF36F8F92
:10023000704700BF10000020EFF3058070470000FA
:100240000948804709480047FEE7FEE7FEE7FEE76A
:10025000FEE7FEE7FEE7FEE7FEE7FEE704480549A6
:10026000054A064B704700000B2E0008ED00000801
:1002700048350020483B0020483700204837002000
:100280000FB4044910B503AA029800F085F910BC18
:100290005DF814FB3C3400202DE9F0410E46044685
:1002A000002020622046E168884730B3252805D029
:1002B000D4E901219047206A401CF2E7E16820461A
:1002C00000278847050018D0A5F14100192802D859
:1002D00020354FF400673246294620462760FFF755
:1002E0003FFF40B1012804D0F61D26F0070608366E
:1002F000D8E7361DD6E72846DAE7206ABDE8F08160
:1003000070B50C460546012A05D02878800600D530
:10031000EA69002302E0012305E05B1C934202D25C
:10032000E05C0028F9D1A869E618C01AA861286A1B
:10033000184428622846AFF3008004E0D5E9012183
:1003400014F8010B9047B442F8D32846AFF300806D
:1003500070BD00002DE9F0410646002410687529A3
:10036000314616A510D0AFF30080002802DA4042D3
:1003700013A507E031688A0701D512A502E04907F5
:1003800004D511A5012401E0AFF3008000210A2269
:1003900006F1240709E0B0FBF2FCB0FBF2F302FB2C
:1003A0001C00303078541846491C0028F3D12346ED
:1003B0002A463046BDE8F04100F07EB8000000005B
:1003C0002D0000002B000000200000000022CBB216
:1003D00010F8011B994200D1421E0029F8D11046A5
:1003E000704710B5431C02E010F8011B71B1810782
:1003F000FAD14FF0013202C88C1A8C4314EAC211B0
:10040000F9D0C01A0A0603D0C01E10BDC01A10BD14
:100410000A0401D0801E10BD0902FCD0401E10BD90
:100420004FF000020429C0F0128010F0030C00F01D
:100430001B80CCF1040CBCF1020F18BF00F8012B9B
:10044000A8BF20F8022BA1EB0C0100F00DB85FEA69
:10045000C17C24BF00F8012B00F8012B48BF00F835
:10046000012B70474FF0000200B5134694469646A4
:10047000203922BFA0E80C50A0E80C50B1F12001B7
:10048000BFF4F7AF090728BFA0E80C5048BF0CC065
:100490005DF804EB890028BF40F8042B08BF7047C3
:1004A00048BF20F8022B11F0804F18BF00F8012B35
:1004B00070477047704770472DE9F0470D469946E1
:1004C0009246044600F124080168880604D5E069D4
:1004D00021F01001216000E00120A84201DD471B4E
:1004E00000E00027A1697A1902EB0900081AA0614F
:1004F0002078C00602D42046AFF30080002608E032
:10050000D4E901211AF806009047206A401C761CA5
:1005100020624E45F4DB2078C0060AD52046AFF3B2
:10052000008006E0D4E9012130209047206A401C79
:100530002062381EA7F10107F4DC07E0D4E90121AD
:1005400018F805009047206A401C2062281EA5F17B
:100550000105F3DC2046AFF300802078000602D5C9
:100560000220BDE8F0870120FBE710B5436913B115
:10057000AFF3008001E0FFF7C3FE012010BD127849
:1005800000F124010A7000224A700122EDE711688F
:100590004FF0FF32E9E70000074B70B50D467B4492
:1005A00000F011F80446284600F020F810B14FF092
:1005B000FF3070BD204670BD672D000001694A1CE8
:1005C00002610878704700B58FB0CDE90131002194
:1005D000059105497944CDE9031011466846FFF7B6
:1005E0005BFE0FB000BD0000E5FFFFFF007B00F0E9
:1005F0008000704710B542485421FFF733FF41484F
:100600005421FFF72FFF40485421FFF72BFF3F49AC
:100610003B483C4A3F4B08603D490A603A491960F3
:10062000531C0365481C1065012008653B48344A8B
:1006300039A1784400F01CF920B9384878440A38C8
:1006400000F0BBF937482F4A35A1784400F010F983
:1006500020B9344878440A3800F0AFF932482A4AC1
:100660002FA1784400F004F920B92F4878440A38C3
:1006700000F0A3F940232248DC000021224600F0CC
:10068000D4F820B125487844543800F096F91D4834
:1006900022464023002100F0C8F820B121487844C8
:1006A000543800F08AF9184822461023002100F03F
:1006B000BCF8002806D01C487844BDE810405638E5
:1006C00000F07BB910BD104870B5006D20F001043A
:1006D0000B4800F043F90B4800F040F90A4800F0DD
:1006E0003DF909E0206D20F00105204600F036F9C3
:1006F000204600F073F82C46002CF3D170BD0000AA
:10070000E83300203C34002090340020D400002046
:10071000D8000020DC00002072000000D43F000060
:1007200077000000C03F0000AC3F00000EB5CDE9EF
:100730000001FFF756FE029069460120ABBE0EBDD8
:1007400008B5694600900220ABBE08BD1FB58DE814
:10075000070069460520ABBE04B010BD1FB58DE88B
:100760000F0069460620ABBEF6E708B56946009063
:100770000920ABBE08BD1CB5CDE9000169460A20C1
:10078000ABBE1CBD704708B5694600900C20ABBEDF
:1007900008BD754600F018F9AE4605006946534697
:1007A00020F00700854618B020B5FFF757FDBDE8DB
:1007B00020404FF000064FF000074FF000084FF0C8
:1007C000000B21F00701AC46ACE8C009ACE8C00959
:1007D000ACE8C009ACE8C0098D46704770B5044666
:1007E000051F00F0F7F80068002C14BF446870BDC6
:1007F000002C18BFAC423CBF20466468F8D30168A7
:100800000A18AA4218BF456003D12A680546114458
:10081000016028684119A1421CBF6C6070BD61680D
:10082000696021680844286070BD70B5C468A50778
:1008300013D0650211D4B2F5807F09D0B2F5007FE4
:1008400006D0B2F5806F08D1012300F1240106E043
:100850005D1E6FF07F46B54201D3012070BD01617E
:10086000C361416024F470611143C160002070BD18
:100870002DE9F0410C4607461646104600F06EF88A
:100880002078611C61280AD0722802D077283CD1D8
:1008900002E00125002405E00225042402E00824EA
:1008A00048F2020511F8010B2B2806D0622809D066
:1008B00011F8010C74280AD00BE045F0030544F050
:1008C0000204EFE745F0040544F00104EAE744F0D0
:1008D000100438462146FFF729FF411C15D000219E
:1008E000316171604FF40071F560F1617061200752
:1008F00004D530460222002100F0E6F8306D40F0C9
:10090000010030653046BDE8F0810020FBE72DE9AD
:10091000F0410D460646104C206DC10704D0410839
:1009200004D020F00104F7E722460EE0542000F046
:100930009CF807000ED0206D47F0010108435421B8
:1009400020653846FFF78EFD3A4629463046BDE819
:10095000F0418DE70020D6E7E83300202DE9F0478D
:1009600004464FF000094FF0FF37C568D4E904860C
:10097000A80707D0204600F057F93046FFF7E0FE01
:10098000002802DA3846BDE8F087280502D540463F
:10099000FFF724FF4C212046FFF764FD206D20F077
:1009A000010020654846EEE710B50446AFF300802D
:1009B0002046BDE81040FFF7F0BB10B500F07EF90F
:1009C000BDE8104000F074B900487047E4340020DE
:1009D0007047000000487047EC34002070477047B3
:1009E0007047704738B504460A4600206946AFF3A1
:1009F0000080002808BF38BD02460099204600F05C
:100A000084F9012038BD012000F0D3B9F8B5AFF367
:100A10000080054600200C46102000BF0646A8199D
:100A2000A0420DD9324669460020AFF3008007008E
:100A300008BF00F0BEF90098A04218BF0546C419CF
:100A4000FFF7C8FF05600746F01D20F007004619B4
:100A5000284600F053F9B44208BFF8BDA21B314646
:100A60003868BDE8F84000F050B970B50646FFF7A9
:100A7000B1FF056806F10B0020F00704B4429CBFEB
:100A8000002070BD2B466A68BAB11068A04210D32E
:100A900004F1080188423CBF5068586007D3516890
:100AA000101941601168091B016058601460101D25
:100AB00070BD13465268002AE7D121462846FFF749
:100AC00091FF0028DED170BD2DE9F04104461646A5
:100AD0000D464769007B80072ED03846FFF745FE5C
:100AE00050BB3EB3012E02D0022E25D104E0204699
:100AF00000F025F905441DE03846FFF744FEE168A3
:100B0000002841F01001E16005DA204600F058F8B5
:100B10000120BDE8F081C9030BD56268E16A91420A
:100B200000D81146A26911442269891A814200DD68
:100B300008460544002D01DA0220EAE7E16A606810
:100B4000E268814206D29103E06203D522F40031CB
:100B500041F01002A6690027AE4213DCE16A81422F
:100B600001D90B4600E0034603EB060C2369ACEB0E
:100B7000030CAC4506DD814201D98C4600E0844679
:100B80009C4505D1A760276042F02000A5620DE0DA
:100B9000AD1BE669AE1B8142A66000D90846C01AAB
:100BA000281A20605819606022F02000034908408C
:100BB000E060002084F84870ABE70000BFCFD7FFAB
:100BC000C16821F4001141F08001C1600021816001
:100BD000016070472DE9F047814614460E464FF0FC
:100BE000FF383248D5685769054209D03846A169AF
:100BF000FFF7C1FD002811DB2C48C0430540E5602C
:100C00002B46324649463846FFF7A0FDA16920F041
:100C10000042B21A11440028A16103D02046FFF718
:100C2000CFFF4046BDE8F08770B504460569C06A4D
:100C30006168884200D80846E16821F42011E1602B
:100C4000C90312D5A84208D02246411B2846FFF707
:100C5000C1FF10B14FF0FF3070BD0020E562C4E964
:100C60000150E06820F48030E060002070BD10B5D5
:100C70000446C06820F02000E060A16AA0698842B4
:100C80000DD02046FFF7D0FFE06820F4405040F040
:100C90001000E060A06AA0612069E062606044F238
:100CA0004001E0688843E06010BD000010000200D1
:100CB000002801D000F01CB87047000010B50146B4
:100CC00002A000F05DF8012010BD0000534947521A
:100CD000545245443A2052656469726563743A20FF
:100CE00063616E2774206F70656E3A20000000000B
:100CF00001491820ABBEFEE726000200002101607A
:100D0000C0E90110704710207047034640688C46C8
:100D1000002818BF88423CBF03464068F8D31868D3
:100D20001844884207D00CF1030020F00700001D92
:100D3000411A521A0146081D0A60FFF74FBD10B54F
:100D40000146C268900703D0900607D5886A0AE07A
:100D500000F03EF801210160881E10BD8B694868D3
:100D600018440B69C01A91F848301BB191F849102A
:100D7000401A10BD1103FCD50028FADD401E10BD3D
:100D800070B505460C460A2000E06D1C00F018F80E
:100D900035B128780028F8D102E0641C00F010F882
:100DA00014B120780028F8D1BDE870400A2000F086
:100DB00007B810B500F010F8BDE81040FFF778BF95
:100DC00008B569468DF800000320ABBE08BD0000E1
:100DD00000487047E434002010B5012805D00021F8
:100DE00003A0FFF7CDFF012010BD09A1F8E7000027
:100DF00053494752544D454D3A204F7574206F6604
:100E00002068656170206D656D6F7279000000006B
:100E10003A2048656170206D656D6F727920636F4F
:100E2000727275707465640000BFFEE7704772B639
:100E300000BFFEE72DE9F8470346002294466EE125
:100E40004FF0010808FA02F4D1F8008008EA040023
:100E5000A0427DD1DFF8DCA2D1F80480A8EB0A091A
:100E6000D0453AD014DCB8F1030F50D009DCB8F10A
:100E7000000F31D0B8F1010F1CD0B8F1020F49D1E9
:100E800020E0B8F1110F18D0B8F1120F42D11EE0D6
:100E9000B9F5881F25D006DCB9F5803F20D0B9F51B
:100EA000801F37D11AE0B9F5001F18D0B9F5041F1B
:100EB00030D117E0D1F80CC02DE0D1F80C8008F14A
:100EC000040C28E0D1F80C8008F1080C23E0D1F8DC
:100ED0000C8008F10C0C1EE000BF00BF00BF00BF7B
:100EE00000BF00BFD1F80880B8F1000F02D14FF069
:100EF000040C0BE0D1F80880B8F1010F03D14FF0DA
:100F0000080C1C6102E04FF0080C5C6103E04FF03C
:100F1000000C00E000BF00BFFF2801D8984601E0A8
:100F200003F104084646FF2802D84FEA820803E08E
:100F3000A2F108084FEA88084746D6F800804FF02B
:100F40000F0909FA07F928EA09080CFA07F900E07D
:100F500088E048EA0908C6F80080D1F8048008F063
:100F60008058B8F1805F7DD100BFDFF8CC81D8F820
:100F7000188048F00108DFF8C091C9F81880C84609
:100F8000D8F8188008F00108CDF8008000BF00BF35
:100F90004FEAB9384FEA920958F829504FEA827857
:100FA0004FEA18794FF00F0808FA09F825EA080502
:100FB000DFF88881434502D14FF0000816E0DFF8E2
:100FC0008081434502D14FF001080FE0DFF87481C2
:100FD000434502D14FF0020808E0DFF86C81434539
:100FE00002D14FF0030801E04FF004084FEA827984
:100FF0004FEA197908FA09F848EA0505DFF84C8143
:101000004FEA920948F82950D1F8048008F4801872
:10101000B8F5801F0AD1DFF83881D8F8008048EA97
:101020000008DFF82C91C9F8008009E0DFF8208182
:10103000D8F8008028EA0008DFF81491C9F8008089
:10104000D1F8048008F40018B8F5001F10D1DFF8BB
:10105000008108F10408D8F8008048EA0008DFF8A9
:10106000F09000E05AE009F10409C9F800800DE0B1
:10107000DFF8DC8008F10408D8F8008028EA0008CE
:10108000DFF8CC9009F10409C9F80080D1F8048098
:1010900008F40038B8F5003F0ED1DFF8B480A8F1AD
:1010A0000408D8F8008048EA0008DFF8A490A9F105
:1010B0000409C9F800800DE0DFF89480A8F1040865
:1010C000D8F8008028EA0008DFF88490A9F1040924
:1010D000C9F80080D1F8048008F48038B8F5803F62
:1010E0000ED1DFF86C80A8F10808D8F8008048EA33
:1010F0000008DFF85C90A9F10809C9F800800DE04C
:10110000DFF84C80A8F10808D8F8008028EA000829
:10111000DFF83C90A9F10809C9F80080521CD1F809
:10112000008028FA02F8B8F1000F7FF489AEBDE81C
:10113000F887000000001110001002400008014074
:10114000000C014000100140001401400800014063
:101150000804014010B5C26821EA020302EA010452
:1011600043EA0443036110BD0AB1016101E00B04CD
:1011700003617047014800687047000000000020CC
:1011800070B504460CB9012070BD94F83D0028B933
:10119000002084F83C00204600F0DAF8242084F88F
:1011A0003D002068006820F0010021680860206888
:1011B000006840F40040216808602068006820F45E
:1011C00000402168086000F08BFA05465C496068C1
:1011D000884206D85B48854201D2012007E0002002
:1011E00005E05948854201D2012000E00020012895
:1011F00000D1C9E75548B5FBF0F62068406820F0FB
:101200003F003043216848604D496068884201D8FA
:10121000701C07E04FF4967070434FF47A71B0FB86
:10122000F1F0401C2168096A21F03F010843216860
:10123000086243496068884214D8681E61684900A2
:10124000B0FBF1F0401CC0F30B00042801D20420D5
:101250003DE0681E61684900B0FBF1F0401CC0F33E
:101260000B0034E0A06838B9681E616801EB4101E9
:10127000B0FBF1F0401C0AE0681E616801EBC1029E
:1012800002EB0111B0FBF1F0401C40F48040C0F3D0
:101290000B0008B901201AE0A06848B9681E61680F
:1012A00001EB4101B0FBF1F0401CC0F30B000CE07E
:1012B000681E616801EBC10202EB0111B0FBF1F0A5
:1012C000401CC0F30B0040F4804040F40040216813
:1012D000C9694CF6FF72914308432168C861D4E99B
:1012E000070108432168096821F0C001084321680B
:1012F0000860D4E9031008432168896848F2FF3286
:101300009143084321688860D4E9050108432168B6
:10131000C96821F0FF0108432168C860206800689F
:1013200040F001002168086000202064202084F83B
:101330003D000020206384F83E0000BF24E7000049
:10134000A086010080841E0000093D0040420F007D
:1013500010B586B0044600200290039004900590DA
:1013600015492068884225D100BF1448806940F0A3
:101370000800124988610846806900F00800019061
:1013800000BF00BFC02002901220039003200590F0
:1013900002A90B48FFF74EFD00BF0848C06940F4A2
:1013A00000100649C8610846C06900F400100190A9
:1013B00000BF00BF06B010BD005400400010024046
:1013C000000C0140034800680349097808440149BA
:1013D00008607047000000200800002010B5084891
:1013E000006840F0100006490860032000F098F8FB
:1013F0000F2000F007F800F02BF8002010BD0000CF
:101400000020024070B504460E4800784FF47A710F
:10141000B1FBF0F00C490968B1FBF0F5284600F08B
:10142000ABFD08B1012070BD102C07D2002221466F
:10143000501E00F037F80548046001E00120F2E793
:101440000020F0E7080000200C000020040000202D
:1014500008B500BF1148806940F001000F4988615C
:101460000846806900F00100009000BF00BF00BF87
:101470000846C06940F08050C8610846C06900F065
:101480008050009000BF00BF00BF0549486820F0B1
:10149000E06040F00070486000BF08BD00100240EE
:1014A000000001402DE9F05F80460D4616460027FA
:1014B00001F0DCFE074639462A46334601F00700B4
:1014C000C0F1070ABAF1040F02D94FF0040A01E093
:1014D000C0F1070AD14600F1040ABAF1070F02D29F
:1014E0004FF0000A01E0A0F1030AD4464FF0010AD0
:1014F0000AFA09FAAAF1010A0AEA020A0AFA0CFA35
:101500004FF0010B0BFA0CFBABF1010B0BEA030BD9
:101510004AEA0B042146404601F0B0FEBDE8F09FC8
:1015200000BF00F00702064B19684FF6FF03194091
:10153000044B0B4343EA0221014B196000BF704783
:101540000CED00E00000FA0570B504460D460CB93C
:10155000012070BD5A48006800F00700A8420ED272
:101560005748006820F0070028435549086008469E
:10157000006800F00700A84201D00120E9E72078C8
:1015800000F0020002281DD1207800F00400042899
:1015900005D14C48406840F4E0604A4948602078F2
:1015A00000F00800082805D14648406840F4605023
:1015B000444948604348406820F0F000A16808436F
:1015C00040494860207800F0010078B36068012845
:1015D00006D13C48006800F4003090B90120B8E71B
:1015E0006068022806D13748006800F0007040B9F2
:1015F0000120AEE73348006800F0020008B901207E
:10160000A7E73048406820F00300616808432D498F
:101610004860FFF7AFFD064609E0FFF7ABFD801B12
:1016200041F28831884202D9032092E707E0254839
:10163000406800F00C006168B0EB810FEDD12048EC
:10164000006800F00700A8420ED91D48006820F08D
:10165000070028431A4908600846006800F00700A0
:10166000A84201D0012074E7207800F0040004288B
:1016700007D11448406820F4E060E168084311494C
:101680004860207800F00800082808D10D4840681C
:1016900020F46050216940EAC1000A49486000F026
:1016A0003FF808494968C1F30311074A515CC84033
:1016B0000649086006480068FFF7A4FE002048E7D6
:1016C0000020024000100240F24500080C000020FB
:1016D0000400002001480068704700000C00002052
:1016E00000B5FFF7F7FF04494968C1F30221034A37
:1016F000515CC84000BD00000010024002460008D6
:1017000000B5FFF7E7FF04494968C1F3C221034A66
:10171000515CC84000BD00000010024002460008B5
:1017200070B500210022002400230020134D6968B9
:1017300001F00C05F5B1042D02D0082D19D101E0FE
:101740000F4819E00F4DC1F38346AB5D01F48035BE
:1017500055B10A4D6D68C5F340450B4E725D084D9D
:101760005D43B5FBF2F402E0084D03FB05F42046AF
:1017700002E000BF024800BF00BF70BD0010024081
:1017800000127A00E0450008F045000800093D001D
:10179000F8B504460CB90120F8BD207800F001002E
:1017A000002878D0F848406800F00C0004280CD0DD
:1017B000F548406800F00C00082811D1F248406854
:1017C00000F48030B0F5803F0AD1EF48006800F4A3
:1017D000003000285FD0606800285CD10120DBE782
:1017E00000BF6068B0F5803F06D1E748006840F46C
:1017F0008030E549086028E0606858B9E248006830
:1018000020F48030E04908600846006820F4802019
:1018100008601AE06068B0F5A02F0BD1DA480068C4
:1018200040F48020D84908600846006840F48030C1
:1018300008600AE0D448006820F48030D24908608B
:101840000846006820F48020086000BF606888B106
:10185000FFF790FC054606E0FFF78CFC401B642870
:1018600001D9032098E7C848006800F40030002838
:10187000F2D010E0FFF77EFC054606E0FFF77AFCA9
:10188000401B642801D9032086E7BF48006800F4A4
:1018900000300028F2D1207800F00200022857D151
:1018A000B948406800F00C0050B1B748406800F0FB
:1018B0000C00082818D1B448406800F4803098B96A
:1018C000B148006800F0020020B12069012801D071
:1018D000012061E7AC48006820F0F800616940EA47
:1018E000C100A949086033E02069E8B10120A74997
:1018F0000860FFF73FFC054606E0FFF73BFC401B96
:10190000022801D9032047E79F48006800F0020041
:101910000028F2D09C48006820F0F800616940EA95
:10192000C1009949086013E0002098490860FFF75A
:1019300021FC054606E0FFF71DFC401B022801D9EB
:10194000032029E79048006800F002000028F2D147
:10195000207800F0080008282DD1A069B8B1012036
:101960008B490860FFF706FC054606E0FFF702FC1E
:10197000401B022801D903200EE78348406A00F08B
:1019800002000028F2D0012001F0F0F813E000205E
:101990007F490860FFF7EEFB054606E0FFF7EAFB2C
:1019A000401B022801D90320F6E67748406A00F080
:1019B00002000028F2D1207800F00400042873D13E
:1019C00000277148C06900F0805070B900BF6E48B0
:1019D000C06940F080506C49C8610846C06900F099
:1019E0008050009000BF00BF01276A48006800F4E3
:1019F0008070B0B96748006840F48070654908603D
:101A0000FFF7B8FB054606E0FFF7B4FB401B642870
:101A100001D90320C0E65F48006800F48070002808
:101A2000F2D000BFE068012806D15748006A40F0B4
:101A300001005549086227E0E06858B95248006A39
:101A400020F00100504908620846006A20F00400B6
:101A5000086219E0E06805280BD14B48006A40F0A5
:101A60000400494908620846006A40F00100086223
:101A70000AE04548006A20F0010043490862084630
:101A8000006A20F00400086200BFE068A0B1FFF720
:101A900071FB054609E0FFF76DFB401B41F2883101
:101AA000884202D9032077E622E03748006A00F036
:101AB00002000028EFD012E0FFF75CFB054608E0CB
:101AC000FFF758FB401B41F28831884201D90320BF
:101AD00062E62D48006A00F002000028F0D1012FD4
:101AE00005D12948C06920F080502749C86100BF4E
:101AF000E069C8B32448406800F00C00082860D0B2
:101B0000E069022848D1002020490866FFF732FB2F
:101B1000054606E0FFF72EFB401B022801D90320F3
:101B20003AE61948006800F000700028F2D1206AF7
:101B3000B0F5803F07D11448406820F40030A16818
:101B4000084311494860D4E9080108430E4949682F
:101B500021F4741108430C49486001200B490866C0
:101B6000FFF708FB054607E03DE0FFF703FB401BDE
:101B7000022801D903200FE60348006800F0007036
:101B80000028F2D02FE00000001002400000424286
:101B90008004424200700040002014490866FFF7AC
:101BA000E9FA054606E0FFF7E5FA401B022801D9ED
:101BB0000320F1E50E48006800F000700028F2D123
:101BC00011E0E069012800D1E6E50948466806F41D
:101BD0008031206A814204D106F47011606A81422A
:101BE00001D00120D8E50020D6E5000000004242E7
:101BF0000010024010B504460CB9012010BD606A07
:101C000038B96068B0F5827F00D105E00021E1615C
:101C100002E00021216161610021A16294F851007C
:101C200028B9002084F85000204600F043F8022034
:101C300084F851002068006820F0400021680860A6
:101C4000A08800F48270218901F404410843A1892D
:101C500001F400610843217C01F002010843217D69
:101C600001F001010843218B01F400710843217F39
:101C700001F0380108432021095D01F0800108438B
:101C8000218D01F400510843216808600421A069F6
:101C900001EA1040216848602068C06920F40060B3
:101CA0002168C86100206065012084F8510000208F
:101CB000A4E7000010B586B004460020029003900F
:101CC000049005901949206888422DD100BF18481A
:101CD000806940F48050164988610846806900F4A4
:101CE0008050019000BF00BF00BF0846806940F0EF
:101CF000040088610846806900F00400019000BF7C
:101D000000BFA0200290022003900320059002A9AA
:101D10000848FFF78FF840200290002003900490BD
:101D200002A90448FFF786F806B010BD0030014054
:101D300000100240000801402DE9FF5F044688467C
:101D400091461D460E9E012002900020019000BF8A
:101D500094F85000012803D1022004B0BDE8F09FA0
:101D6000012084F8500000BFFFF704FA074694F8FA
:101D700051B060680390AA46BBF1010F0BD00398E5
:101D8000B0F5827F04D1A06810B9BBF1040F02D076
:101D900002200190E9E0B8F1000F03D0B9F1000F83
:101DA00000D015B901200190DFE094F8510004281B
:101DB00002D0052084F8510000206065C4F83890F6
:101DC000E587A587C4F83080E586A5862064606431
:101DD0002068006800F04000402805D020680068B6
:101DE00040F0400021680860E068B0F5006F4DD118
:101DF000606810B1BAF1010F09D1206B0088216829
:101E0000C860206B801C2063E08E401EE08636E0B8
:101E10002068806800F00200022810D1E08E70B1C6
:101E2000029801280BD1206B00882168C860206BC4
:101E3000801C2063E08E401EE08600200290206817
:101E4000806800F0010068B1E08F58B12068C06878
:101E5000A16B0880A06B801CA063E08F401EE08710
:101E600001200290FFF786F9C01BB04207D3701C17
:101E700028B103200190012084F8510075E0E08E24
:101E80000028C5D1E08F0028C2D14DE0606810B1B4
:101E9000BAF1010F09D1206B007821680873206B1B
:101EA000401C2063E08E401EE08637E0206880689A
:101EB00000F00200022810D1E08E70B102980128D3
:101EC0000BD1206B007821680873206B401C2063C5
:101ED000E08E401EE086002002902068806800F0BE
:101EE000010068B1E08F58B12068C068A16B08702C
:101EF000A06B401CA063E08F401EE0870120029091
:101F0000FFF738F9C01BB04201D3701C00B92EB9DD
:101F100003200190012084F8510026E0E08E002883
:101F2000C4D1E08F0028C1D13A463146204600F0A6
:101F30009DFE20B1012001902020606515E0A06881
:101F400050B900BF002000902068C0680090206851
:101F50008068009000BF00BF606D10B1012001904B
:101F600002E0012084F8510000BF00BF002084F887
:101F7000500000BF0198F0E670B504462546681E83
:101F8000B0F1807F01D301200FE0681E4FF0E02107
:101F900048610F214FF0FF3001F070F900204FF041
:101FA000E021886107200861002070BD10B503465C
:101FB000002200BF93F83C00012801D1022010BD8F
:101FC000012083F83C0000BF22F0FF00CC6840EA0B
:101FD000040222F440708C6840EA040222F480601B
:101FE0004C6840EA040222F400600C6840EA0402F3
:101FF00022F480500C6940EA040222F400504C693B
:1020000040EA040222F48040CC6940EA04021868E5
:10201000426400BF002083F83C0000BF00BFCEE751
:1020200030B502460B4600BF92F83C00012801D1B2
:10203000022030BD012082F83C0000BF022082F85F
:102040003D00106844681068816824F070041868C6
:10205000044310684460104D1068A8420BD010680B
:10206000B0F1804F07D00D4D1068A84203D00C4D41
:102070001068A84205D121F080015868014310681A
:102080008160012082F83D0000BF002082F83C0002
:1020900000BF00BFCDE70000002C0140000400405D
:1020A0000008004010B504460CB9012010BD94F89A
:1020B0003D0028B9002084F83C00204600F026F8B6
:1020C000022084F83D00211D206800F09FFE0120C1
:1020D00084F8460000BF84F83E0001213F200155EE
:1020E000402001554120015500BF00BF012084F868
:1020F000420043200155442001554520015500BFB1
:10210000012084F83D000020D0E7000008B5244AF3
:10211000016891420DD100BF2249896941F40061F3
:10212000204A91611146896901F40061009100BF64
:1021300035E00168B1F1804F0DD100BF1949C9697F
:1021400041F00101174AD1611146C96901F001014D
:10215000009100BF23E0144A016891420DD100BFF5
:102160001049C96941F002010E4AD1611146C9699D
:1021700001F00201009100BF11E00C4A0168914298
:102180000DD100BF0749C96941F00401054AD16179
:102190001146C96901F00401009100BF00BF08BDEC
:1021A000002C0140001002400004004000080040E4
:1021B0002DE9F04104460D46002700BF94F83C008D
:1021C000012802D10220BDE8F081012084F83C0002
:1021D00000BF022084F83D002068866826F077065C
:1021E00026F47F46206886602868502833D00CDCAF
:1021F000202850D004DC00284BD0102851D149E0D1
:10220000302849D040284CD139E060282DD07028A2
:1022100007D0B0F5805F03D0B0F5005F41D10DE08D
:1022200041E0D5E902136A68206800F029FE2068C1
:10223000866846F077062068866034E0D5E90213A8
:102240006A68206800F01CFE2068806840F48040C6
:102250002168886027E0EA686968206800F0E0FE8D
:102260005021206800F017FE1DE0EA6869682068C8
:1022700000F0E9FE6021206800F00DFE13E0EA683E
:102280006968206800F0CCFE4021206800F003FE61
:1022900009E000BF00BF00BF2968206800F0FBFD17
:1022A00001E0012700BF00BF012084F83D0000BF0E
:1022B000002084F83C0000BF384684E710B586B0A3
:1022C0000446002002900390049005903C49206849
:1022D000884217D100BF3B48806940F0040039496B
:1022E00088610846806900F00400019000BF00BFCB
:1022F0000815029002200390059002A93248FEF7CB
:1023000099FD5BE02068B0F1804F16D100BF2D48E9
:10231000806940F004002B4988610846806900F01C
:102320000400019000BF00BF0220029003900590BE
:1023300002A92548FEF77EFD40E024492068884236
:1023400021D100BF1F48806940F008001D49886105
:102350000846806900F00800019000BF00BF10200F
:10236000029002200390059002A91948FEF762FD31
:1023700000BF1849486820F4406040F0E06040F435
:10238000006048601AE014492068884216D100BFF6
:102390000C48806940F008000A4988610846806955
:1023A00000F00800019000BF00BF48150290022015
:1023B0000390059002A90648FEF73CFD06B010BD4B
:1023C000002C0140001002400008014000040040C1
:1023D000000C014000000140000800402DE9F041E0
:1023E00004460D461646002700BF94F83C0001281D
:1023F00002D10220BDE8F081012084F83C0000BF3A
:1024000036B1042E1BD0082E31D00C2E5ED145E003
:102410002946206800F048FD2068806940F00800E7
:10242000216888612068806920F004002168886143
:1024300020688069296908432168886148E0294645
:10244000206800F061FD2068806940F40060216828
:1024500088612068806920F4806021688861206834
:102460008069296940EA01202168886130E02946B5
:10247000206800F07DFD2068C06940F008002168F8
:10248000C8612068C06920F004002168C861206824
:10249000C069296908432168C86119E02946206894
:1024A00000F09AFD2068C06940F400602168C861AE
:1024B0002068C06920F480602168C8612068C06914
:1024C000296940EA01202168C86101E0012700BFB5
:1024D00000BF00BF002084F83C0000BF384689E7F9
:1024E00010B504460CB9012010BD94F83D0028B980
:1024F000002084F83C00204600F025F8022084F8F3
:102500003D00211D206800F081FC012084F8460078
:1025100000BF84F83E0001213F20015540200155B5
:102520004120015500BF00BF012084F84200432034
:102530000155442001554520015500BF012084F874
:102540003D000020D0E7704710B504460CB90120CB
:1025500010BDA06900B100E000BF94F8410028B9A7
:10256000002084F84000204600F02AF8242084F857
:1025700041002068C06820F400502168C8602046EF
:1025800000F0AAFD2068006920F4904021680861ED
:102590002068406920F02A00216848612068C068EE
:1025A00040F400502168C86000206064202084F856
:1025B000410084F842000020606300BFC8E70000CB
:1025C00010B586B004460020029003900490059058
:1025D0001949206888422DD100BF1848C06940F4CD
:1025E00000301649C8610846C06900F40030019007
:1025F00000BF00BF00BF0846806940F0040088614A
:102600000846806900F00400019000BF00BF04206C
:102610000290022003900320059002A90848FEF7CB
:1026200009FC0820029000200390049002A90448AD
:10263000FEF700FC06B010BD004400400010024050
:10264000000801402DE9F84F04460E46174699460A
:102650004FF0000A94F8410020284AD106B117B97A
:102660000120BDE8F88F00206064212084F841003B
:10267000FEF780FD8246A784E784A068B0F5805FFE
:1026800004D1206910B90025B04602E035464FF06C
:1026900000081BE05346002280212046CDF8009020
:1026A00000F098FD08B10320DBE745B9B8F8000059
:1026B000C0F308002168486008F1020803E02878A8
:1026C000216848606D1CE08C401EE084E08C00288E
:1026D000E0D15346002240212046CDF8009000F082
:1026E00079FD08B10320BCE7202084F841000020D8
:1026F000B7E70220B5E700BFFEE7000000B585B0F0
:102700000020019002900390049000BF334880693C
:1027100040F01000314988610846806900F01000DF
:10272000009000BF00BF00BF0846806940F0200055
:1027300088610846806900F02000009000BF00BF5B
:1027400000BF0846806940F004008861084680693F
:1027500000F00400009000BF00BF00BF0846806981
:1027600040F0080088610846806900F00800009089
:1027700000BF00BF012241F610011948FEF7F4FC2A
:1027800001224CF204011748FEF7EEFC00224FF440
:1027900080711348FEF7E8FC002208211148FEF77B
:1027A000E3FC41F6101001900120029000200390FC
:1027B0000220049001A90A48FEF73CFB4CF20C00F1
:1027C000019001200290002003900220049001A9B2
:1027D0000448FEF72FFB05B000BD000000100240CA
:1027E00000080140000C014010B50B480B4908607F
:1027F0000B484860002109488160C1604FF4804166
:102800000161002141618161C1610162FEF7B8FC93
:1028100008B1FEF70CFB10BD00540040E0000020A2
:10282000801A060010B50E480E4908604FF48270F9
:10283000486000210B488160C160016141614FF433
:10284000007181611021C1610021016241628162D8
:102850000A21C162FFF7CEF908B1FEF7E8FA10BD10
:10286000003001403401002000B595B000201190E7
:102870001290139014900F9010901C2108A8FDF74F
:10288000F1FD20216846FDF7EDFD2B482B4908603E
:102890000320486000212948816040F2E731C1608F
:1028A0000021016141618161FFF7FCFB08B1FEF786
:1028B000BEFA4FF48050119011A92048FFF778FC20
:1028C00008B1FEF7B4FA1D48FFF70AFE08B1FEF79B
:1028D000AEFA00200F9010900FA91848FFF7A0FB48
:1028E00008B1FEF7A4FA60200890C82009900020E3
:1028F0000A900B900C900D900E90082208A90F489A
:10290000FFF76CFD08B1FEF792FA002000900190ED
:102910000290039004904FF400500590002007901F
:1029200069460648FFF742FB08B1FEF780FA034804
:10293000FFF7C4FC15B000BD002C01408C01002045
:1029400000B58DB0002009900A900B900C90079074
:1029500008901C216846FDF785FD4FF08040204916
:1029600008600320486000211D48816040F2E73183
:10297000C160002101618161FFF794FB08B1FEF79E
:1029800056FA4FF48050099009A91548FFF710FC3A
:1029900008B1FEF74CFA1248FFF7A2FD08B1FEF7A6
:1029A00046FA00200790089007A90D48FFF738FB6A
:1029B00008B1FEF73CFA60200090C820019000208A
:1029C00002900490042269460548FFF707FD08B10C
:1029D000FEF72DFA0248FFF771FC0DB000BD0000B4
:1029E000D401002000B58DB0002009900A900B9012
:1029F0000C90079008901C216846FDF733FD204895
:102A0000204908600320486000211E48816040F290
:102A1000E731C160002101618161FFF743FB08B12B
:102A2000FEF705FA4FF48050099009A91548FFF701
:102A3000BFFB08B1FEF7FBF91248FFF751FD08B1E3
:102A4000FEF7F5F900200790089007A90D48FFF759
:102A5000E7FA08B1FEF7EBF960200090C82001907A
:102A6000002002900490002269460648FFF7B6FC59
:102A700008B1FEF7DCF90348FFF720FC0DB000BDFC
:102A8000000400401C02002000B58DB00020099019
:102A90000A900B900C90079008901C216846FDF757
:102AA000E1FC2048204908600320486000211E48BE
:102AB000816040F2E731C160002101618161FFF76F
:102AC000F1FA08B1FEF7B3F94FF48050099009A963
:102AD0001548FFF76DFB08B1FEF7A9F91248FFF79B
:102AE000FFFC08B1FEF7A3F900200790089007A9A2
:102AF0000D48FFF795FA08B1FEF799F960200090AC
:102B0000C82001900020029004900C2269460648DB
:102B1000FFF764FC08B1FEF78AF90348FFF7CEFB24
:102B20000DB000BD000800406402002010B50B4845
:102B30000B4908604FF4E13048600021084881608B
:102B4000C16001610C21416100218161C161FFF718
:102B5000FBFC08B1FEF76BF910BD0000004400401B
:102B6000AC02002000BFFEE700BFFEE708B5084941
:102B70000968C9084FF47A72B1FBF2F14143009140
:102B800000BF00BF00994A1E00920029F9D108BD7C
:102B90000C0000202DE9F04107460D4616460022A4
:102BA00010210C48FEF7E0FA384600F073F8804632
:102BB000002405E0002000F06DF82855601CC4B228
:102BC000B442F7DB012210210248FEF7CDFA40465D
:102BD000BDE8F0810008014070B5044600221021D4
:102BE0000848FEF7C1FA204600F054F8002000F033
:102BF00051F80546012210210248FEF7B5FA284691
:102C000070BD00000008014070B504460720FFF7C2
:102C1000E3FF05462946272000F00EF805F04000A6
:102C200040B1202221466120FFF7B4FFFF21E220BE
:102C300000F002F8012070BD70B505460C46002674
:102C4000002210210848FEF78FFA284600F022F8EB
:102C50000646204600F01EF8012210210248FEF729
:102C600083FA304670BD000000080140F8B5044604
:102C70000D4616462B46002280212046009600F085
:102C80001BF828B1606D40F0200060650320F8BD9E
:102C90000020FCE701B582B0002001904FF47A706B
:102CA000012301AA02A900900248FFF745F89DF808
:102CB00004000EBD340100202DE9F84F04460D46F6
:102CC00090461E46DDF82890FEF754FAA0EB090066
:102CD000371AFEF74FFA82462C480068C0F3CB3013
:102CE0007843009045E0701C002842D0FEF742FA7D
:102CF000A0EB0A00B84200D2A7BB2068406820F0D1
:102D0000E000216848606068B0F5827F0DD1A0685E
:102D1000B0F5004F03D0A068B0F5806F05D12068F2
:102D2000006820F0400021680860A06AB0F5005FEC
:102D30000DD100BF2068006820F4005021680860B1
:102D40002068006840F400502168086000BF01203E
:102D500084F8510000BF002084F8500000BF032019
:102D6000BDE8F88FFFE7009800B900270098401EE3
:102D70000090206880682840A84201D1012000E02E
:102D800000204045AFD10020EAE700000C00002001
:102D900010B501F099FA012801D001F067F9FEF7AA
:102DA00011FB10BD00B58FB0282105A8FDF75AFB17
:102DB00014216846FDF756FB01200590000406909B
:102DC000002007900120099002200C90C1030D9172
:102DD0004FF4E0110E9105A8FEF7DAFC08B1FEF7FA
:102DE00026F80F20009002200190002002904FF45E
:102DF000806003900020049002216846FEF7A4FB47
:102E000008B1FEF714F80FB000BD704710B50268A6
:102E1000184B984208D0B0F1804F05D0164B98421D
:102E200002D0164B984203D122F070024B681A432D
:102E3000104B984208D0B0F1804F05D00E4B98420D
:102E400002D00E4B984203D122F44072CB681A4351
:102E500022F080034C6943EA040202608B68C3627B
:102E60000B688362034B984201D10B690363012312
:102E7000436110BD002C01400004004000080040E8
:102E800030B50C46816821F47F4142EA0325254391
:102E90002943816030BD0A46816821F0700142F00B
:102EA000070319438160704730B5026A056A25F04F
:102EB000010505624368846924F0700424F003046A
:102EC0000D682C4322F002028D682A430D4DA84262
:102ED00006D100BF22F00802CD682A4322F0040286
:102EE000084DA84207D123F4807323F400734D6981
:102EF0002B438D692B43436084614D6845630262B7
:102F000030BD0000002C014030B5026A056A25F092
:102F1000100505624368846924F4E04424F4407495
:102F20000D6844EA052422F020028D6842EA051269
:102F30000E4DA84207D100BF22F08002CD6842EAC0
:102F4000051222F04002094DA84209D123F4806302
:102F500023F400634D6943EA85038D6943EA8503E1
:102F6000436084614D688563026230BD002C01407E
:102F700030B5026A056A25F4807505624368C46944
:102F800024F0700424F003040D682C4322F4007232
:102F90008D6842EA05220F4DA84207D100BF22F4F6
:102FA0000062CD6842EA052222F48062094DA842FF
:102FB00009D123F4805323F400534D6943EA0513E8
:102FC0008D6943EA05134360C4614D68C5630262BD
:102FD00030BD0000002C014030B5036A056A25F4BD
:102FE000805505624468C26922F4E04222F44072CE
:102FF0000D6842EA052223F400538D6843EA053345
:10300000064DA84204D124F480444D6944EA851455
:103010004460C2614D680564036230BD002C01400C
:1030200030B50B461446026A056A25F001050562B3
:10303000816921F0F00141EA041122F00A021A43E9
:103040008161026230BD30B50B461446026A056AE2
:1030500025F010050562816921F4704141EA0431CF
:1030600022F0A00242EA03128161026230BD000038
:1030700010B5002204210E48FEF776F8642000F017
:1030800053FF012204210A48FEF76EF8C82000F021
:103090004BFF002204210648FEF766F8642000F08A
:1030A00043FF012204210248FEF75EF810BD000034
:1030B000000C014010B5002204210648FEF754F828
:1030C0004FF47A7000F030FF012204210148FEF72E
:1030D0004BF810BD000C014070B504462168096929
:1030E00021F44051E2681143226811612269A1680C
:1030F0001143626941EA02052168C96841F20C6224
:10310000914329432268D1602168496921F44071C3
:10311000A2691143226851612D4A2168914202D16E
:10312000FEF7EEFA01E0FEF7DBFA00EBC00101EB7F
:10313000001162689200B1FBF2F100EBC00202EBF9
:10314000001263689B00B2FBF3F26423B2FBF3F25C
:1031500002EBC20303EB0212A1EB8201322202EB6B
:1031600001116422B1FBF2F101F0F00100EBC002A9
:1031700002EB001263689B00B2FBF3F26423B2FB24
:10318000F3F201EB021200EBC00101EB00116368E6
:103190009B00B1FBF3F100EBC00303EB0013666887
:1031A000B600B3FBF6F36426B3FBF6F303EBC306FA
:1031B00006EB0313A1EB8301322303EB011164231C
:1031C000B1FBF3F101F00F0111442268916070BD71
:1031D000003801402DE9F04104460D461746984657
:1031E000069E34E0701C88B32EB1FDF7C3FFA0EB40
:1031F0000800B0422BD900BF00BF21680C3151E854
:10320000001F21F4D07021680C3141E80002002A2F
:10321000F3D100BF00BF00BF2168143151E8001F87
:1032200021F001002168143141E80002002AF3D1A5
:1032300000BF202084F8410084F8420000BF002035
:1032400084F8400000BF0320BDE8F081FFE720685C
:1032500000682840A84201D1012000E00020B842C7
:10326000C0D00020F0E700BFFEE700000248006881
:10327000C0F30220704700000CED00E010B50028FC
:1032800004DB0A07130E054A135406E00A07140E5E
:10329000034A00F00F031B1FD45410BD00E400E0EC
:1032A00018ED00E01CB501F01FF801901BE000F0E4
:1032B000C3FC0446204600F059F90B48007A012867
:1032C00008D100200223024601460090074800680A
:1032D00000F054FF00F068F900BF062101A800F0DB
:1032E00013FF00BF00BFE2E7BC330020B4000020A2
:1032F00008B500F0F9FF009005E000BF0621684620
:1033000000F002FF00BFF8E713B50C464FF47A73E4
:10331000012269460248FFF795F900981CBD00009C
:10332000AC0200201CB51548042100238022CDE901
:10333000001013A1154800F0B3FE15480321002327
:103340008022CDE9001013A1154800F0A9FE154810
:10335000012100238022CDE9001013A1154800F0BF
:103360009FFE1548022100238022CDE9001013A101
:10337000154800F095FE00F0F1FD1CBDB4000020E2
:10338000706F7765725F7461736B00004935000878
:10339000B8000020666C696768745F7461736B00C5
:1033A000F1320008BC0000206C65645F7461736BCF
:1033B00000000000ED330008C0000020636F6D5F67
:1033C0007461736B00000000A532000810B504465C
:1033D000A18800222068FDF7C7FE10BD10B5044685
:1033E000A18801222068FDF7BFFE10BD08B500F0DE
:1033F0007BFF0090002452E0601CC4B22848007893
:1034000030B92848FFF7EAFF2748FFF7E7FF09E050
:1034100023480078012805D12248FFF7D7FF22482A
:10342000FFF7D4FF2148007860B9052094FBF0F144
:1034300000FB114010BB1E4800F03EF81D4800F094
:103440003BF826E01948007801280DD1204604EB0E
:10345000D0714910A4EB410181B9154800F02CF856
:10346000144800F029F814E010480078022806D12A
:103470000F48FFF7B3FF0F48FFF7B0FF09E00B4815
:103480000078032805D10A48FFF7A0FF0948FFF795
:103490009DFF00BF6421684600F036FE00BFABE729
:1034A000B00000209000002098000020B100002013
:1034B000A0000020A800002010B50446A1882068C4
:1034C000FDF748FE10BD0000FDF788FFFFF76AFC1E
:1034D000FFF714F9FFF72AFBFFF7C6F9FFF730FAF9
:1034E000FFF780FAFFF7D0FAFFF79CF9FFF77CF9B6
:1034F0002F210AA0FCF76AFF28B12F2107A0FCF7B3
:1035000065FF401C00E005A004466922214608A092
:10351000FCF7B6FEFFF706FF00BFFEE72E2E2F4397
:103520006F72652F5372632F6D61696E2E63000099
:103530005B2573203A2025645D48656C6C6F2057CD
:103540006F726C64210A000000F0CEFE0DE042F2C2
:1035500010720121002000F011FC044614B1FFF7A5
:1035600087FD01E0FFF7A6FD00BFF0E728B90021C5
:103570000B4A11700B4A117010E001280ED1094955
:103580000978491C074A1170114609780A2905DB98
:103590000121034A11700021024A11707047000096
:1035A000B0000020D000002010B52048007830B1D5
:1035B00001280ED002281ED0032834D12CE000F0C0
:1035C0003DF828B9012019490870002018490870F1
:1035D0002AE01848407A012805D1022013490870D2
:1035E00000201449487214480078012802D10320B1
:1035F0000E49087018E00F48407A012804D10B49A1
:10360000087000200B4948720B480078012802D14D
:1036100003200649087007E0012000F085FC002027
:103620000249087000E000BF00BF10BDB1000020DB
:10363000C4000020BC330020B000002010B52D488D
:10364000007805284BD2DFE800F003112734490049
:103650002948B0F90000B0F5617F06DB012025495B
:10366000087000F041FE2549086039E02248B0F9B1
:103670000000B0F5617F0EDA00F036FE1F490968E0
:10368000401AB0F57A7F03D302201A49087002E08D
:1036900000201849087023E01748B0F9000064289A
:1036A00006DC03201349087000F01EFE1449086070
:1036B00016E000F019FE12490968401AB0F57A7F49
:1036C0000BD80D48B0F90000642803DD002009493B
:1036D000087002E004200749087001E000E000BF24
:1036E00000BF04480078042801D1002010BD01204B
:1036F000FCE70000C4000020BC330020C80000200C
:10370000CC0000202DE9F04105460E46264807680A
:1037100026480068001D00F075FB50B9234800687A
:1037200090F82C10012088402149096881432048E5
:103730000160681CD8B9D6B11E4948681B490968A0
:1037400088601A4982680968CA6018490968091DB1
:103750008268516015490968091D8160154A13493D
:1037600009684A6111460968491C11601AE07C1910
:103770000E4800684460BC4207D20C480168091D2D
:103780000D48006800F062FB0CE008480168091D64
:103790000A48006800F05AFB09480068844201D2D8
:1037A00007480460BDE8F0812400002010000020DC
:1037B00028000020A803002018000020140000208A
:1037C0004000002010B5044600F05AFB2F48006866
:1037D000401C2E4908602E48006840B92C480460FF
:1037E0000846006801280DD100F016F90AE02948C2
:1037F000006838B926480068C06AE16A884201D882
:103800002348046024480068401C2349086094F859
:103810002C10012088402149096808431F4908608D
:10382000E16A01EB81011E4A02EB81014868A06058
:103830008268E260211D826851608160E16A01EB6B
:103840008101174A02EB81026261E16A01EB8101A9
:10385000134A52F82110491CE26A02EB8202104B13
:1038600043F8221000F01EFB0A48006868B10848BF
:103870000068C06AE16A884207D24FF08050094967
:103880000860BFF34F8FBFF36F8F10BD2000002083
:10389000100000202C0000203C0000202800002008
:1038A000F402002004ED00E010B516E000F0E8FAA4
:1038B0000C48C068C468201D00F0A4FA0A480068DB
:1038C000401E0949086009480068401E0749086011
:1038D00000F0E8FA204600F00BF8044800680028E1
:1038E000E4D110BD94030020200000201C00002023
:1038F00010B50446206B00F0E5FA204600F0E2FA2D
:1039000010BD000030B54FF44053154800F00704D7
:103910002CB1C01D20F00700114C041B1B1B0246DC
:10392000104C226000240F4D6C60D018083820F035
:1039300007000D4C206000240B4D2D686C600A4D73
:103940002D682C601146441A4C60074C24680C60AA
:10395000064D4C682C60064D4C682C6030BD000054
:10396000BC03002050000020580000206000002010
:103970005C00002000BFFFF797FF064800680128A1
:10398000F9D94FF0805004490860BFF34F8FBFF35F
:103990006F8FF0E7F402002004ED00E02DE9FF5FF7
:1039A00080460E469146DDE90E7A109CA9F1010091
:1039B000216B01EB800B2BF0070B7EB1002507E09C
:1039C000715D04F134004155705D00B902E06D1C79
:1039D000102DF5D300BF002143200155052F00D342
:1039E0000427E762201D00F02EFA04F1180000F011
:1039F0002AFA2461C7F10500A06164624146584675
:103A0000039A00F007F92060BAF1000F01D0CAF85C
:103A10000040BDE8FF9F000010B5002407E004EB64
:103A200084010F4A02EB810000F000FA641C052CAF
:103A3000F5D30C4800F0FAF90B4800F0F7F90B4801
:103A400000F0F4F90A4800F0F1F90A4800F0EEF944
:103A500004480949086004480849086010BD00008E
:103A6000F4020020580300206C0300208003002093
:103A700094030020A8030020140000201800002058
:103A800010B50146164800E0006803688B42FBD37E
:103A90000246436813448B4204D143684C68234474
:103AA000436001460A464B6813440468A34211D19F
:103AB0000C4C03682468A34208D04B68046864680F
:103AC00023444B6003681B680B6005E0054B1B68D3
:103AD0000B6001E003680B60884200D0016010BDFC
:103AE000500000205800002009480068006808B90C
:103AF000012000E0002020B14FF0FF3005490860B0
:103B000005E003480068C068006802490860704723
:103B1000140000204000002000BFBF2080F3118867
:103B2000BFF34F8FBFF36F8F00BF00BFFEE70000F2
:103B30002DE9F04705464FF0000900F045FA3048FE
:103B4000006808B9FFF7DEFE75B105F00700C0F1A7
:103B50001008C8F1FF30A84201D2012000E0002087
:103B600008B9454400E00025012000EBE57000287D
:103B700041D0002D3FD02348006885423BD8224EDB
:103B80003046046801E0264624686068A84202D2F4
:103B900020680028F7D11A48006884422BD030688A
:103BA00000F10809206830606068401B102807D9C0
:103BB00067196068401B786065603846FFF760FFF2
:103BC000104960680968081A0E49086008460068CC
:103BD0000E490968884203D20A4800680B49086008
:103BE000606840F000406060002020600848006885
:103BF000401C0749086000F045FC4846BDE8F087D6
:103C0000580000205C0000205000002060000020D0
:103C100064000020001F4FF080730360001F21F03C
:103C200001030360001F034B036014380260203857
:103C300070470000193B0008FEB520214248FCF700
:103C4000EFFB4148FEF7E0FF3F48FCF7CAFB08B92D
:103C50000120FEBD3C480078732807D13A484078DF
:103C6000672803D138488078672801D00120F0E721
:103C700000240025002004E03349095C0C44411C69
:103C8000C8B20D28F8DB3048407B00062E49897BFE
:103C900040EA01402C49C97B40EA01202A49097CBD
:103CA00040EA0105AC4201D00120D2E72648007964
:103CB0002549C97840EA012000B2244908802248F9
:103CC00080792149497940EA012000B21F494880A2
:103CD0001D48007A1C49C97940EA012000B21B49FD
:103CE00088801948807A1849497A40EA012000B250
:103CF0001649C8801448C07A08721348007B48727D
:103D00002F2113A0FCF762FB28B12F2110A0FCF794
:103D10005DFB401C00E00EA006460C48B0F9060012
:103D20000A49B1F90410094AB2F90220CDE900218B
:103D300002900648B0F900304022314609A0FCF755
:103D40009FFA002085E70000C6330020BC33002026
:103D50006170705C726563656976655F64617461EA
:103D60002E6300005B2573203A2025645D3A2564AC
:103D70002C25642C25642C25640A00002DE9F041D3
:103D800004460F46164600F07BF81C480068443095
:103D900050F8240080B901211848006848300155C6
:103DA00056B13046FFF7AEFC4FF080501449086022
:103DB000BFF34F8FBFF36F8F00F074F800F060F81F
:103DC0000E480068443050F824506DB137B10021DE
:103DD0000A480068443040F8241005E0681E07498E
:103DE0000968443141F82400002104480068483043
:103DF000015500F057F82846BDE8F081100000207A
:103E000004ED00E001460A69D1E901309860D1E98A
:103E1000010358605068884201D1886850600020D2
:103E200008611068401E10601068704700F10801BA
:103E300041604FF0FF31816000F10801C160016114
:103E400000210160704700210161704710B50246F2
:103E50000B685C1C0CB9106907E002F1080000E077
:103E60004068446824689C42FAD944684C604C68B5
:103E7000A160886041600A611468641C146010BD10
:103E800000BFBF2080F31188BFF34F8FBFF36F8F48
:103E900000BF03480068401C0149086070470000EB
:103EA0006C00002006480068401E0549086008466E
:103EB000006820B9002080F3118800BF00BF704760
:103EC0006C00002070B506463546E6B1083D2C462C
:103ED0006068C00FB8B12068A8B9606820F00040E1
:103EE000606000F071F80849606809680844064994
:103EF00008602046FFF7C4FD04480068401C0349E1
:103F0000086000F0BFFA70BD5C000020680000206F
:103F100000204FF0E02108618861024848610720D5
:103F2000086170473F19010070B50446002544B18F
:103F300000F04AF800212046FFF7E4FB00F0A2FA67
:103F400005463DB94FF0805003490860BFF34F8FDD
:103F5000BFF36F8F70BD000004ED00E01CB5124888
:103F600000210B468022CDE9001010A1114800F07D
:103F700097F80446012C14D100BFBF2080F31188AC
:103F8000BFF34F8FBFF36F8F00BF4FF0FF300A4971
:103F9000086001200949086000200949086000F014
:103FA0004BF8084800681CBD4400002049444C45BB
:103FB0000000000075390008400000202C0000209F
:103FC000240000204800002002480068401C0149ED
:103FD000086070474C0000201248006818B10120AA
:103FE000114908601DE000200F4908600F48006873
:103FF000B0FA80F0C0F11F0101EB81020C4B03EB22
:10400000820042685268426000F1080243689342AD
:1040100002D14268526842604268D268054B1A6019
:1040200000BF70474C000020340000202800002012
:10403000F40200201000002010B50A48006840F487
:104040007F00084908600846006840F07F4008602B
:10405000FFF75EFF002004490860FCF7B7F8002076
:1040600010BD000020ED00E06C00002010B500BF86
:10407000BF2080F31188BFF34F8FBFF36F8F00BF56
:1040800000F038F918B14FF080500449086000BFC3
:10409000002080F3118800BF10BD000004ED00E097
:1040A0002DE9FF4F85B0804689461746DDE912AB02
:1040B000B800FFF73DFD064676B14C20FFF738FD0E
:1040C00004462CB14C212046FCF7CCF9266304E0D1
:1040D0003046FFF7F7FE00E000247CB10020CDE978
:1040E00000ABCDE902403A4649464046089BFFF7FF
:1040F00055FC2046FFF766FB012501E04FF0FF3538
:10410000284609B0BDE8F08F2DE9F04704468846FF
:104110004FF00009FFF758FF16480668206800EBCB
:1041200008052068B04207D92068A8420BD9B542DB
:1041300009D94FF0010906E02068A84201D8B5422C
:1041400001D94FF001092560B9F1000F03D0A81B78
:104150000021FFF7D7FA00F095F907463FB94FF075
:10416000805005490860BFF34F8FBFF36F8F4846FB
:10417000BDE8F0872400002004ED00E02DE9F05FA9
:1041800081460D4616461F46DDF828A04FF0010B6C
:104190004C46FFF775FEBAF1000F05D004F144005C
:1041A00050F82500CAF8000004F1480010F8058016
:1041B00002214155052F29D2DFE807F027030D170B
:1041C0001C0004F1440050F82500304304F1440180
:1041D00041F825001BE004F1440050F82500401C84
:1041E00004F1440141F8250011E004F1440040F8D5
:1041F00025600CE0B8F1020F04D004F1440040F84F
:10420000256001E04FF0000B01E000E000BF00BFBF
:10421000B8F1010F4AD16069D4E902128A60D4E989
:1042200002214A60211D42688A4201D1E168416051
:10423000002262610168491E016094F82C1001207F
:1042400088401D49096808431B490860E16A01EB81
:1042500081011A4A02EB81014868A0608268E2602D
:10426000211D826851608160E16A01EB8101134A7E
:1042700002EB81026261E16A01EB81010F4A52F8AF
:104280002110491CE26A02EB82020C4B43F8221017
:104290000B49E06A0968C96A884207D94FF0805023
:1042A00008490860BFF34F8FBFF36F8FFFF7FAFD28
:1042B0005846BDE8F09F000028000020F4020020CE
:1042C0001000002004ED00E00549096809B901204B
:1042D00005E00449096809B9022000E000207047A0
:1042E0002C0000204C0000200149086870470000A5
:1042F000240000202DE9F0410027574800680028DD
:104300007ED156480068451C544805608DB9544814
:10431000D0F8008053480068514908605148C0F8FF
:10432000008051480068401C4F490860FFF7DCFBE3
:1043300000BF4E480068854276D300BF48480068F9
:10434000006808B9012000E0002020B14FF0FF30E4
:104350004649086067E042480068C068C46866680B
:10436000B54202D2414806605DE06069D4E90212BC
:104370008A60D4E902214A60211D42688A4201D143
:10438000E1684160002262610168491E0160A06A23
:1043900098B1A06AD4E907128A60D4E907214A607B
:1043A00004F1180142688A4201D1216A4160002269
:1043B000A2620168491E016000BF94F82C10012020
:1043C00088402B490968084329490860E16A01EBE4
:1043D0008101284A02EB81014868A0608268E2609E
:1043E000211D826851608160E16A01EB8101214AEF
:1043F00002EB81026261E16A01EB81011D4A00E08A
:1044000022E052F82110491CE26A02EB8202194BA9
:1044100043F822101849E06A0968C96A88428DD9B0
:1044200001278BE700E000BF13480068C06A00EB7B
:104430008000104951F82000012800D901270F48B9
:10444000006800B1012704E00D480068401C0C49D9
:1044500008603846BDE8F0814C00002024000020B0
:104460001400002018000020380000204000002028
:1044700028000020F402002010000020340000205A
:104480003000002070B500240026FFF7F9FC4B48EF
:104490000068401E494908600846006800287DD130
:1044A00047480068002879D05BE04648C068C46887
:1044B000A06AD4E907128A60D4E907214A6004F1AE
:1044C000180142688A4201D1216A41600022A26239
:1044D0000168491E01606069D4E902128A60D4E96A
:1044E00002214A60211D42688A4201D1E16841608F
:1044F000002262610168491E016094F82C100120BD
:1045000088403149096808432F490860E16A01EB96
:1045100081012E4A02EB81014868A0608268E26056
:10452000211D826851608160E16A01EB8101274AA7
:1045300002EB81026261E16A01EB8101234A52F8D8
:104540002110491CE26A02EB8202204B43F8221040
:104550001F49E06A0968C96A884202D301201D49DF
:1045600008601848006808B9012000E00020002811
:104570009BD00CB1FFF7B8FA1748056865B100BFCA
:10458000FFF7B8FE10B10120124908606D1E002D22
:10459000F6D10020104908600E4800E009E00068EC
:1045A00038B1012630070D490860BFF34F8FBFF3C4
:1045B0006F8FFFF777FC304670BD00004C00002085
:1045C000200000208003002028000020F4020020AA
:1045D00010000020340000203000002004ED00E036
:1045E00002030405060708090A0B0C0D0E0F101034
:1045F00001020000000000000000010203040607A1
:10460000080900000000010203043A7474003A74BF
:1046100074003A747400000038460008000000205E
:10462000E00000002801000818470008E000002012
:10463000683A00004401000800000000100000007B
:10464000010000000024F400000000000000000051
:10465000000000000000000000000000000000005A
:10466000000000000000000000000000000000004A
:10467000000000000000000000000000000000003A
:104680000400000000000000000000000000000026
:10469000000000000000000000000000000000001A
:1046A00000000000AAAAAAAA1C0200200000C8005C
:1046B000640200200C00C800D40100200400C800DF
:1046C0008C0100200800C800000801400010000014
:1046D0000008014000080000000C014000800000BC
:1046E000000C01400040000001010000000000003B
:1046F00000000000000000000000000000000000BA
:1047000000000000000000000000000000000000A9
:084710000000000000000000A1
:04000005080000ED02
:00000001FF
