:020000040800F2
:10000000F038002041020008C91B00082F1B00081F
:10001000C51B0008E50D0008571E00080000000081
:10002000000000000000000000000000A90100081E
:10003000E90D000800000000ED010008F51B0008B4
:100040005B0200085B0200085B0200085B0200081C
:100050005B0200085B0200085B0200085B0200080C
:100060005B0200085B0200085B0200085B020008FC
:100070005B0200085B0200085B0200085B020008EC
:100080005B0200085B0200085B0200085B020008DC
:100090005B0200085B0200085B0200085B020008CC
:1000A0005B0200085B0200085B0200085B020008BC
:1000B0005B0200085B0200085B0200085B020008AC
:1000C0005B0200085B0200085B0200085B0200089C
:1000D0005B0200085B0200085B0200085B0200088C
:1000E0005B0200085B0200085B02000800F002F8F7
:1000F00000F04AF80AA090E8000C82448344AAF178
:100100000107DA4501D100F03FF8AFF2090EBAE875
:100110000F0013F0010F18BFFB1A43F0010318473B
:10012000A0290000C0290000103A24BF78C878C177
:10013000FAD8520724BF30C830C144BF04680C60ED
:10014000704700000023002400250026103A28BF35
:1001500078C1FBD8520728BF30C148BF0B60704739
:10016000642900F0F780732900F0D08100207047E7
:100170001FB59DE8030000F007FC00F0F9F91FBD72
:1001800010B500F05EFA10BD00F0C1FA1146FFF79D
:10019000EFFF01F0A3FE00F0C5FB03B4FFF7F0FF93
:1001A00003BC00F083FD0000224B19680868B0E82A
:1001B000F00F80F30988BFF36F8F4FF0000080F3DA
:1001C00011884EF00D0E70470000000006480068D0
:1001D000006880F3088862B661B6BFF34F8FBFF343
:1001E0006F8F00DF00BF00BF08ED00E0EFF3098074
:1001F000BFF36F8F0F4B1A6820E9F00F106008B53E
:100200004FF0BF0080F31188BFF34F8FBFF36F8FA4
:1002100002F01CFA4FF0000080F31188BDE808409E
:1002200019680868B0E8F00F80F30988BFF36F8F92
:10023000704700BF10000020EFF3058070470000FA
:100240000948804709480047FEE7FEE7FEE7FEE76A
:10025000FEE7FEE7FEE7FEE7FEE7FEE704480549A6
:10026000054A064B704700006F1C0008ED000008AF
:10027000F0320020F0380020F0340020F03400206C
:100280000FB4044910B503AA029800F043F910BC5A
:100290005DF814FBE43100202DE9F0410E460446E0
:1002A000002020622046E168884730B3252805D029
:1002B000D4E901219047206A401CF2E7E16820461A
:1002C00000278847050018D0A5F14100192802D859
:1002D00020354FF400673246294620462760FFF755
:1002E0003FFF40B1012804D0F61D26F0070608366E
:1002F000D8E7361DD6E72846DAE7206ABDE8F08160
:1003000070B50C460546012A05D02878800600D530
:10031000EA69002302E0012305E05B1C934202D25C
:10032000E05C0028F9D1A869E618C01AA861286A1B
:10033000184428622846AFF3008004E0D5E9012183
:1003400014F8010B9047B442F8D32846AFF300806D
:1003500070BD00002DE9F0410646002410687529A3
:10036000314616A510D0AFF30080002802DA4042D3
:1003700013A507E031688A0701D512A502E04907F5
:1003800004D511A5012401E0AFF3008000210A2269
:1003900006F1240709E0B0FBF2FCB0FBF2F302FB2C
:1003A0001C00303078541846491C0028F3D12346ED
:1003B0002A463046BDE8F04100F03DB8000000009C
:1003C0002D0000002B000000200000000022CBB216
:1003D00010F8011B994200D1421E0029F8D11046A5
:1003E00070474FF0000200B51346944696462039F8
:1003F00022BFA0E80C50A0E80C50B1F12001BFF4DE
:10040000F7AF090728BFA0E80C5048BF0CC05DF843
:1004100004EB890028BF40F8042B08BF704748BF91
:1004200020F8022B11F0804F18BF00F8012B704705
:100430007047704770472DE9F0470D469946924640
:10044000044600F124080168880604D5E06921F01B
:100450001001216000E00120A84201DD471B00E0FF
:100460000027A1697A1902EB0900081AA061207817
:10047000C00602D42046AFF30080002608E0D4E98D
:1004800001211AF806009047206A401C761C206261
:100490004E45F4DB2078C0060AD52046AFF3008035
:1004A00006E0D4E9012130209047206A401C2062F8
:1004B000381EA7F10107F4DC07E0D4E9012118F8A0
:1004C00005009047206A401C2062281EA5F1010506
:1004D000F3DC2046AFF300802078000602D502202E
:1004E000BDE8F0870120FBE710B5436913B1AFF316
:1004F000008001E0FFF704FF012010BD127800F139
:1005000024010A7000224A700122EDE711684FF0C1
:10051000FF32E9E7074B70B50D467B4400F011F858
:100520000446284600F020F810B14FF0FF3070BDAF
:10053000204670BD7719000001694A1C02610878E5
:10054000704700B58FB0CDE9013100210591054913
:100550007944CDE9031011466846FFF79DFE0FB0C0
:1005600000BD0000E5FFFFFF007B00F0800070474A
:1005700010B542485421FFF734FF41485421FFF79A
:1005800030FF40485421FFF72CFF3F493B483C4A8D
:100590003F4B08603D490A603A491960531C0365A6
:1005A000481C1065012008653B48344A39A178444D
:1005B00000F01CF920B9384878440A3800F0BBF93B
:1005C00037482F4A35A1784400F010F920B9344853
:1005D00078440A3800F0AFF932482A4A2FA178440B
:1005E00000F004F920B92F4878440A3800F0A3F944
:1005F00040232248DC000021224600F0D4F820B13C
:1006000025487844543800F096F91D482246402386
:10061000002100F0C8F820B121487844543800F097
:100620008AF9184822461023002100F0BCF800285F
:1006300006D01C487844BDE81040563800F07BB91D
:1006400010BD104870B5006D20F001040B4800F09B
:1006500043F90B4800F040F90A4800F03DF909E081
:10066000206D20F00105204600F036F9204600F00C
:1006700073F82C46002CF3D170BD0000903100209F
:10068000E43100203832002074000020780000207F
:100690007C000020720000000025000077000000B0
:1006A000EC240000D82400000EB5CDE9000100F0D4
:1006B000DDFA029069460120ABBE0EBD08B5694661
:1006C00000900220ABBE08BD1FB58DE8070069464B
:1006D0000520ABBE04B010BD1FB58DE80F00694604
:1006E0000620ABBEF6E708B5694600900920ABBE10
:1006F00008BD1CB5CDE9000169460A20ABBE1CBD92
:10070000704708B5694600900C20ABBE08BD754621
:1007100000F018F9AE4605006946534620F0070080
:10072000854618B020B5FFF799FDBDE820404FF091
:1007300000064FF000074FF000084FF0000B21F0CB
:100740000701AC46ACE8C009ACE8C009ACE8C00998
:10075000ACE8C0098D46704770B50446051F00F02F
:10076000F7F80068002C14BF446870BD002C18BF57
:10077000AC423CBF20466468F8D301680A18AA421C
:1007800018BF456003D12A680546114401602868F6
:100790004119A1421CBF6C6070BD6168696021682D
:1007A0000844286070BD70B5C468A50713D0650201
:1007B00011D4B2F5807F09D0B2F5007F06D0B2F532
:1007C000806F08D1012300F1240106E05D1E6FF067
:1007D0007F46B54201D3012070BD0161C361416014
:1007E00024F470611143C160002070BD2DE9F04117
:1007F0000C4607461646104600F06EF82078611C3D
:1008000061280AD0722802D077283CD102E0012565
:10081000002405E00225042402E0082448F2020531
:1008200011F8010B2B2806D0622809D011F8010C11
:1008300074280AD00BE045F0030544F00204EFE70A
:1008400045F0040544F00104EAE744F0100438469A
:100850002146FFF729FF411C15D00021316171604D
:100860004FF40071F560F1617061200704D53046E6
:100870000222002100F0E6F8306D40F00100306502
:100880003046BDE8F0810020FBE72DE9F0410D4640
:100890000646104C206DC10704D0410804D020F05A
:1008A0000104F7E722460EE0542000F09CF8070010
:1008B0000ED0206D47F001010843542120653846D1
:1008C000FFF78FFD3A4629463046BDE8F0418DE7F7
:1008D0000020D6E7903100202DE9F04704464FF084
:1008E00000094FF0FF37C568D4E90486A80707D090
:1008F000204600F057F93046FFF7E0FE002802DA04
:100900003846BDE8F087280502D54046FFF724FFAA
:100910004C212046FFF765FD206D20F00100206589
:100920004846EEE710B50446AFF300802046BDE828
:100930001040FFF732BC10B500F07EF9BDE8104062
:1009400000F074B9004870478C32002070470000F6
:1009500000487047943200207047704770477047D6
:1009600038B504460A4600206946AFF300800028E7
:1009700008BF38BD02460099204600F0A4F90120C6
:1009800038BD012000F0F3B9F8B5AFF3008005469B
:1009900000200C46102000BF0646A819A0420DD921
:1009A000324669460020AFF30080070008BF00F020
:1009B000DEF90098A04218BF0546C419FFF7C8FF2A
:1009C00005600746F01D20F007004619284600F094
:1009D00073F9B44208BFF8BDA21B31463868BDE8C0
:1009E000F84000F070B970B50646FFF7B1FF056832
:1009F00006F10B0020F00704B4429CBF002070BD3C
:100A00002B466A68BAB11068A04210D304F10801FD
:100A100088423CBF5068586007D351681019416044
:100A20001168091B016058601460101D70BD1346E9
:100A30005268002AE7D121462846FFF791FF002897
:100A4000DED170BD2DE9F041044616460D464769DA
:100A5000007B80072ED03846FFF745FE50BB3EB3E3
:100A6000012E02D0022E25D104E0204600F045F9E7
:100A700005441DE03846FFF744FEE168002841F0D8
:100A80001001E16005DA204600F058F80120BDE8C9
:100A9000F081C9030BD56268E16A914200D8114622
:100AA000A26911442269891A814200DD0846054481
:100AB000002D01DA0220EAE7E16A6068E26881421B
:100AC00006D29103E06203D522F4003141F0100216
:100AD000A6690027AE4213DCE16A814201D90B46C8
:100AE00000E0034603EB060C2369ACEB030CAC45BA
:100AF00006DD814201D98C4600E084469C4505D143
:100B0000A760276042F02000A5620DE0AD1BE669FA
:100B1000AE1B8142A66000D90846C01A281A206080
:100B20005819606022F0200003490840E06000206E
:100B300084F84870ABE70000BFCFD7FFC16821F44D
:100B4000001141F08001C1600021816001607047A7
:100B50002DE9F047814614460E464FF0FF383248E3
:100B6000D5685769054209D03846A169FFF7C1FD2C
:100B7000002811DB2C48C0430540E5602B46324677
:100B800049463846FFF7A0FDA16920F00042B21A9D
:100B900011440028A16103D02046FFF7CFFF404653
:100BA000BDE8F08770B504460569C06A616888428F
:100BB00000D80846E16821F42011E160C90312D58C
:100BC000A84208D02246411B2846FFF7C1FF10B1BA
:100BD0004FF0FF3070BD0020E562C4E90150E068CD
:100BE00020F48030E060002070BD10B50446C0687D
:100BF00020F02000E060A16AA06988420DD0204664
:100C0000FFF7D0FFE06820F4405040F01000E060B3
:100C1000A06AA0612069E062606044F24001E0687F
:100C20008843E06010BD000010000200002801D0E1
:100C300000F03CB87047000010B5014602A000F07B
:100C40007DF8012010BD00005349475254524544DD
:100C50003A2052656469726563743A2063616E2755
:100C600074206F70656E3A200000000010B5431CC0
:100C700002E010F8011B71B18107FAD14FF0013287
:100C800002C88C1A8C4314EAC211F9D0C01A0A06A1
:100C900003D0C01E10BDC01A10BD0A0401D0801EB2
:100CA00010BD0902FCD0401E10BD000001491820F3
:100CB000ABBEFEE72600020000210160C0E9011082
:100CC000704710207047034640688C46002818BFC4
:100CD00088423CBF03464068F8D3186818448842ED
:100CE00007D00CF1030020F00700001D411A521A32
:100CF0000146081D0A60FFF72FBD10B50146C26806
:100D0000900703D0900607D5886A0AE000F03EF805
:100D100001210160881E10BD8B69486818440B6969
:100D2000C01A91F848301BB191F84910401A10BD13
:100D30001103FCD50028FADD401E10BD70B5054634
:100D40000C460A2000E06D1C00F018F835B1287838
:100D50000028F8D102E0641C00F010F814B12078EB
:100D60000028F8D1BDE870400A2000F007B810B59F
:100D700000F010F8BDE81040FFF758BF08B569460D
:100D80008DF800000320ABBE08BD0000004870478E
:100D90008C32002010B5012805D0002103A0FFF7F8
:100DA000CDFF012010BD09A1F8E7000053494752CB
:100DB000544D454D3A204F7574206F66206865612B
:100DC00070206D656D6F7279000000003A204865F3
:100DD0006170206D656D6F727920636F72727570CE
:100DE0007465640000BFFEE7704772B600BFFEE79F
:100DF0002DE9F8470346002294466EE14FF00108C2
:100E000008FA02F4D1F8008008EA0400A0427DD17B
:100E1000DFF8DCA2D1F80480A8EB0A09D0453AD06B
:100E200014DCB8F1030F50D009DCB8F1000F31D059
:100E3000B8F1010F1CD0B8F1020F49D120E0B8F190
:100E4000110F18D0B8F1120F42D11EE0B9F5881F6A
:100E500025D006DCB9F5803F20D0B9F5801F37D109
:100E60001AE0B9F5001F18D0B9F5041F30D117E00A
:100E7000D1F80CC02DE0D1F80C8008F1040C28E06A
:100E8000D1F80C8008F1080C23E0D1F80C8008F1AF
:100E90000C0C1EE000BF00BF00BF00BF00BF00BFC2
:100EA000D1F80880B8F1000F02D14FF0040C0BE02C
:100EB000D1F80880B8F1010F03D14FF0080C1C6184
:100EC00002E04FF0080C5C6103E04FF0000C00E022
:100ED00000BF00BFFF2801D8984601E003F10408D5
:100EE0004646FF2802D84FEA820803E0A2F108082C
:100EF0004FEA88084746D6F800804FF00F0909FAF4
:100F000007F928EA09080CFA07F900E088E048EA3E
:100F10000908C6F80080D1F8048008F08058B8F1BC
:100F2000805F7DD100BFDFF8CC81D8F8188048F011
:100F30000108DFF8C091C9F81880C846D8F81880B1
:100F400008F00108CDF8008000BF00BF4FEAB938B3
:100F50004FEA920958F829504FEA82784FEA1879F7
:100F60004FF00F0808FA09F825EA0805DFF888812C
:100F7000434502D14FF0000816E0DFF88081434579
:100F800002D14FF001080FE0DFF87481434502D130
:100F90004FF0020808E0DFF86C81434502D14FF0C2
:100FA000030801E04FF004084FEA82794FEA19790B
:100FB00008FA09F848EA0505DFF84C814FEA92097A
:100FC00048F82950D1F8048008F48018B8F5801F3B
:100FD0000AD1DFF83881D8F8008048EA0008DFF845
:100FE0002C91C9F8008009E0DFF82081D8F8008052
:100FF00028EA0008DFF81491C9F80080D1F80480CD
:1010000008F40018B8F5001F10D1DFF8008108F1CE
:101010000408D8F8008048EA0008DFF8F09000E003
:101020005AE009F10409C9F800800DE0DFF8DC801E
:1010300008F10408D8F8008028EA0008DFF8CC900E
:1010400009F10409C9F80080D1F8048008F40038D7
:10105000B8F5003F0ED1DFF8B480A8F10408D8F845
:10106000008048EA0008DFF8A490A9F10409C9F853
:1010700000800DE0DFF89480A8F10408D8F8008023
:1010800028EA0008DFF88490A9F10409C9F8008073
:10109000D1F8048008F48038B8F5803F0ED1DFF82D
:1010A0006C80A8F10808D8F8008048EA0008DFF84A
:1010B0005C90A9F10809C9F800800DE0DFF84C80C8
:1010C000A8F10808D8F8008028EA0008DFF83C906A
:1010D000A9F10809C9F80080521CD1F8008028FA4B
:1010E00002F8B8F1000F7FF489AEBDE8F887000080
:1010F000000011100010024000080140000C0140E7
:1011000000100140001401400800014008040140A3
:101110000148006870470000000000200348006894
:10112000034909780844014908607047000000201D
:101130000800002010B50848006840F0100006497B
:101140000860032000F098F80F2000F007F800F086
:101150002BF8002010BD00000020024070B50446AE
:101160000E4800784FF47A71B1FBF0F00C49096831
:10117000B1FBF0F5284600F0E9FB08B1012070BD95
:10118000102C07D200222146501E00F037F80548E7
:10119000046001E00120F2E70020F0E708000020F1
:1011A0000C0000200400002008B500BF1148806931
:1011B00040F001000F4988610846806900F0010095
:1011C000009000BF00BF00BF0846C06940F08050DB
:1011D000C8610846C06900F08050009000BF00BFA1
:1011E00000BF0549486820F0E06040F000704860AA
:1011F00000BF08BD00100240000001402DE9F05F73
:1012000080460D461646002700F028FE0746394660
:101210002A46334601F00700C0F1070ABAF1040F6D
:1012200002D94FF0040A01E0C0F1070AD14600F1EB
:10123000040ABAF1070F02D24FF0000A01E0A0F150
:10124000030AD4464FF0010A0AFA09FAAAF1010A80
:101250000AEA020A0AFA0CFA4FF0010B0BFA0CFB2D
:10126000ABF1010B0BEA030B4AEA0B0421464046A3
:1012700000F0FCFDBDE8F09F00BF00F00702064B48
:1012800019684FF6FF031940044B0B4343EA022150
:10129000014B196000BF70470CED00E00000FA053B
:1012A00070B504460D460CB9012070BD5A4800685F
:1012B00000F00700A8420ED25748006820F007004F
:1012C0002843554908600846006800F00700A84216
:1012D00001D00120E9E7207800F0020002281DD1AA
:1012E000207800F00400042805D14C48406840F400
:1012F000E0604A494860207800F00800082805D1DD
:101300004648406840F4605044494860434840685B
:1013100020F0F000A168084340494860207800F0C0
:10132000010078B36068012806D13C48006800F4E9
:10133000003090B90120B8E76068022806D137482C
:10134000006800F0007040B90120AEE73348006843
:1013500000F0020008B90120A7E73048406820F0FB
:101360000300616808432D494860FFF7D1FE064637
:1013700009E0FFF7CDFE801B41F28831884202D997
:10138000032092E707E02548406800F00C00616800
:10139000B0EB810FEDD12048006800F00700A842B3
:1013A0000ED91D48006820F0070028431A4908603C
:1013B0000846006800F00700A84201D0012074E749
:1013C000207800F00400042807D11448406820F475
:1013D000E060E168084311494860207800F00800A7
:1013E000082808D10D48406820F46050216940EA7F
:1013F000C1000A49486000F03FF808494968C1F354
:101400000311074A515CC840064908600648006855
:10141000FFF7A4FE002048E7002002400010024031
:101420009A2A00080C0000200400002001480068EF
:10143000704700000C00002000B5FFF7F7FF0449DB
:101440004968C1F30221034A515CC84000BD000055
:1014500000100240AA2A000800B5FFF7E7FF044980
:101460004968C1F3C221034A515CC84000BD000075
:1014700000100240AA2A000870B5002100220024B2
:1014800000230020134D696801F00C05F5B1042D0F
:1014900002D0082D19D101E00F4819E00F4DC1F31A
:1014A0008346AB5D01F4803555B10A4D6D68C5F3D7
:1014B00040450B4E725D084D5D43B5FBF2F402E012
:1014C000084D03FB05F4204602E000BF024800BFC0
:1014D00000BF70BD0010024000127A00882A000888
:1014E000982A000800093D00F8B504460CB901200F
:1014F000F8BD207800F00100002878D0F848406856
:1015000000F00C0004280CD0F548406800F00C00F6
:10151000082811D1F248406800F48030B0F5803FCF
:101520000AD1EF48006800F4003000285FD06068FE
:1015300000285CD10120DBE700BF6068B0F5803F88
:1015400006D1E748006840F48030E549086028E0AB
:10155000606858B9E248006820F48030E0490860CB
:101560000846006820F4802008601AE06068B0F542
:10157000A02F0BD1DA48006840F48020D8490860D9
:101580000846006840F4803008600AE0D4480068EB
:1015900020F48030D24908600846006820F480209A
:1015A000086000BF606888B1FFF7B2FD054606E03D
:1015B000FFF7AEFD401B642801D9032098E7C84817
:1015C000006800F400300028F2D010E0FFF7A0FD22
:1015D000054606E0FFF79CFD401B642801D9032067
:1015E00086E7BF48006800F400300028F2D1207878
:1015F00000F00200022857D1B948406800F00C0002
:1016000050B1B748406800F00C00082818D1B44821
:10161000406800F4803098B9B148006800F00200DA
:1016200020B12069012801D0012061E7AC480068A1
:1016300020F0F800616940EAC100A949086033E080
:101640002069E8B10120A7490860FFF761FD054660
:1016500006E0FFF75DFD401B022801D9032047E7A4
:101660009F48006800F002000028F2D09C48006803
:1016700020F0F800616940EAC1009949086013E070
:10168000002098490860FFF743FD054606E0FFF794
:101690003FFD401B022801D9032029E7904800683C
:1016A00000F002000028F2D1207800F0080008289D
:1016B0002DD1A069B8B101208B490860FFF728FD42
:1016C000054606E0FFF724FD401B022801D9032050
:1016D0000EE78348406A00F002000028F2D00120A3
:1016E00000F074FA13E000207F490860FFF710FD56
:1016F000054606E0FFF70CFD401B022801D9032038
:10170000F6E67748406A00F002000028F2D120781F
:1017100000F00400042873D100277148C06900F06C
:10172000805070B900BF6E48C06940F080506C496D
:10173000C8610846C06900F08050009000BF00BF3B
:1017400001276A48006800F48070B0B967480068F3
:1017500040F4807065490860FFF7DAFC054606E052
:10176000FFF7D6FC401B642801D90320C0E65F4880
:10177000006800F480700028F2D000BFE068012803
:1017800006D15748006A40F001005549086227E039
:10179000E06858B95248006A20F0010050490862D8
:1017A0000846006A20F00400086219E0E068052895
:1017B0000BD14B48006A40F00400494908620846D2
:1017C000006A40F0010008620AE04548006A20F023
:1017D0000100434908620846006A20F004000862DC
:1017E00000BFE068A0B1FFF793FC054609E0FFF7F2
:1017F0008FFC401B41F28831884202D9032077E6F2
:1018000022E03748006A00F002000028EFD012E022
:10181000FFF77EFC054608E0FFF77AFC401B41F22B
:101820008831884201D9032062E62D48006A00F021
:1018300002000028F0D1012F05D12948C06920F00D
:1018400080502749C86100BFE069C8B32448406898
:1018500000F00C00082860D0E069022848D1002080
:1018600020490866FFF754FC054606E0FFF750FCE8
:10187000401B022801D903203AE61948006800F00D
:1018800000700028F2D1206AB0F5803F07D11448DB
:10189000406820F40030A168084311494860D4E949
:1018A000080108430E49496821F4741108430C49A2
:1018B000486001200B490866FFF72AFC054607E04F
:1018C0003DE0FFF725FC401B022801D903200FE66D
:1018D0000348006800F000700028F2D02FE00000FC
:1018E000001002400000424280044242007000406A
:1018F000002014490866FFF70BFC054606E0FFF7D9
:1019000007FC401B022801D90320F1E50E480068BE
:1019100000F000700028F2D111E0E069012800D148
:10192000E6E50948466806F48031206A814204D120
:1019300006F47011606A814201D00120D8E50020D0
:10194000D6E50000000042420010024070B5044697
:101950002546681EB0F1807F01D301200FE0681E8C
:101960004FF0E02148610F214FF0FF3000F07EFA88
:1019700000204FF0E021886107200861002070BD41
:1019800010B504460CB9012010BDA06900B100E0FB
:1019900000BF94F8410028B9002084F84000204698
:1019A00000F02AF8242084F841002068C06820F460
:1019B00000502168C860204600F086F92068006960
:1019C00020F49040216808612068406920F02A00D6
:1019D000216848612068C06840F400502168C860F0
:1019E00000206064202084F8410084F84200002038
:1019F000606300BFC8E7000010B586B00446002051
:101A000002900390049005901949206888422DD1D6
:101A100000BF1848C06940F400301649C861084644
:101A2000C06900F40030019000BF00BF00BF08464D
:101A3000806940F0040088610846806900F0040075
:101A4000019000BF00BF04200290022003900320F9
:101A5000059002A90848FFF7CBF908200290002062
:101A60000390049002A90448FFF7C2F906B010BD24
:101A70000044004000100240000801402DE9F84FEA
:101A800004460E46174699464FF0000A94F8410066
:101A900020284AD106B117B90120BDE8F88F0020EF
:101AA0006064212084F84100FFF732FB8246A7845E
:101AB000E784A068B0F5805F04D1206910B90025E3
:101AC000B04602E035464FF000081BE053460022C6
:101AD00080212046CDF8009000F074F908B1032071
:101AE000DBE745B9B8F80000C0F30800216848609A
:101AF00008F1020803E02878216848606D1CE08C3A
:101B0000401EE084E08C0028E0D1534600224021B2
:101B10002046CDF8009000F055F908B10320BCE74D
:101B2000202084F841000020B7E70220B5E700BF7D
:101B3000FEE7000008B500BF1348806940F01000C0
:101B4000114988610846806900F01000009000BFCC
:101B500000BF00BF0846806940F020008861084649
:101B6000806900F02000009000BF00BF00BF084661
:101B7000806940F0040088610846806900F0040034
:101B8000009000BF00BF08BD0010024010B50B4818
:101B90000B4908604FF4E13048600021084881603B
:101BA000C16001610C21416100218161C161FFF7C8
:101BB000E7FE08B1FFF719F910BD0000004400402E
:101BC0008000002000BFFEE700BFFEE708B508491F
:101BD0000968C9084FF47A72B1FBF2F141430091F0
:101BE00000BF00BF00994A1E00920029F9D108BD2C
:101BF0000C00002010B500F0C1FD012801D000F05C
:101C00006FFDFFF78BFA10BD00B58FB0282105A836
:101C1000FEF7E7FB14216846FEF7E3FB0120059081
:101C200000040690002007900120099002200C90EB
:101C3000C1030D914FF4E0110E9105A8FFF754FC7C
:101C400008B1FFF7D2F80F20009002200190002089
:101C500002904FF4806003900020049002216846B7
:101C6000FFF71EFB08B1FFF7C0F80FB000BD7047CB
:101C700015E02F210AA0FEF7A9FB28B12F2108A00B
:101C8000FEF7A4FB401C00E005A004461C222146F0
:101C900008A0FEF7F5FA4FF47A7000F07FFCE8E751
:101CA0006170705C6672656552544F535F54617326
:101CB0006B2E63005B2573203A2025645D546173AD
:101CC0006B310D0A0000000070B5044621680969F7
:101CD00021F44051E2681143226811612269A16830
:101CE0001143626941EA02052168C96841F20C6248
:101CF000914329432268D1602168496921F44071E8
:101D0000A2691143226851612D4A2168914202D192
:101D1000FFF7A2FB01E0FFF78FFB00EBC00101EB37
:101D2000001162689200B1FBF2F100EBC00202EB1D
:101D3000001263689B00B2FBF3F26423B2FBF3F280
:101D400002EBC20303EB0212A1EB8201322202EB8F
:101D500001116422B1FBF2F101F0F00100EBC002CD
:101D600002EB001263689B00B2FBF3F26423B2FB48
:101D7000F3F201EB021200EBC00101EB001163680A
:101D80009B00B1FBF3F100EBC00303EB00136668AB
:101D9000B600B3FBF6F36426B3FBF6F303EBC3061E
:101DA00006EB0313A1EB8301322303EB0111642340
:101DB000B1FBF3F101F00F0111442268916070BD95
:101DC000003801402DE9F04104460D46174698467B
:101DD000069E34E0701C88B32EB1FFF799F9A0EB92
:101DE0000800B0422BD900BF00BF21680C3151E878
:101DF000001F21F4D07021680C3141E80002002A54
:101E0000F3D100BF00BF00BF2168143151E8001FAB
:101E100021F001002168143141E80002002AF3D1C9
:101E200000BF202084F8410084F8420000BF002059
:101E300084F8400000BF0320BDE8F081FFE7206880
:101E400000682840A84201D1012000E00020B842EB
:101E5000C0D00020F0E700BFFEE7000002480068A5
:101E6000C0F30220704700000CED00E010B5002820
:101E700004DB0A07130E054A135406E00A07140E82
:101E8000034A00F00F031B1FD45410BD00E400E010
:101E900018ED00E013B50C464FF47A730122694641
:101EA0000248FFF7EBFD00981CBD000080000020F9
:101EB0001CB50648012100238022CDE9001004A1B1
:101EC000054800F027FC00F083FB1CBD70000020DB
:101ED0005461736B31000000711C0008FFF72AF990
:101EE000FFF792FEFFF726FEFFF750FE2F210AA014
:101EF000FEF76CFA28B12F2107A0FEF767FA401C05
:101F000000E005A004466022214608A0FEF7B8F9CB
:101F1000FFF7CEFF00BFFEE72E2E2F436F72652F17
:101F20005372632F6D61696E2E6300005B25732011
:101F30003A2025645D48656C6C6F20576F726C6445
:101F4000210A00002DE9F04105460E4626480768A3
:101F500026480068001D00F08FFA50B92348006839
:101F600090F82C10012088402149096881432048BD
:101F70000160681CD8B9D6B11E4948681B49096878
:101F800088601A4982680968CA6018490968091D89
:101F90008268516015490968091D8160154A134915
:101FA00009684A6111460968491C11601AE07C19E8
:101FB0000E4800684460BC4207D20C480168091D05
:101FC0000D48006800F07CFA0CE008480168091D23
:101FD0000A48006800F074FA09480068844201D297
:101FE00007480460BDE8F0812400002010000020B4
:101FF000280000207C010020180000201400002090
:102000004000002010B5044600F074FA2F48006824
:10201000401C2E4908602E48006840B92C480460D6
:102020000846006801280DD100F016F90AE0294899
:10203000006838B926480068C06AE16A884201D859
:102040002348046024480068401C2349086094F831
:102050002C10012088402149096808431F49086065
:10206000E16A01EB81011E4A02EB81014868A06030
:102070008268E260211D826851608160E16A01EB43
:102080008101174A02EB81026261E16A01EB810181
:10209000134A52F82110491CE26A02EB8202104BEB
:1020A00043F8221000F038FA0A48006868B108487E
:1020B0000068C06AE16A884207D24FF0805009493F
:1020C0000860BFF34F8FBFF36F8F10BD200000205B
:1020D000100000202C0000203C00002028000020E0
:1020E000C800002004ED00E010B516E000F002FA90
:1020F0000C48C068C468201D00F0BEF90A4800689A
:10210000401E0949086009480068401E07490860E8
:1021100000F002FA204600F00BF80448006800289E
:10212000E4D110BD68010020200000201C00002028
:1021300010B50446206B00F0FFF9204600F0FCF9D2
:1021400010BD000030B54FF44053154800F00704AF
:102150002CB1C01D20F00700114C041B1B1B0246B4
:10216000104C226000240F4D6C60D018083820F00D
:1021700007000D4C206000240B4D2D686C600A4D4B
:102180002D682C601146441A4C60074C24680C6082
:10219000064D4C682C60064D4C682C6030BD00002C
:1021A0009001002050000020580000206000002016
:1021B0005C00002000BFFFF797FF06480068012879
:1021C000F9D94FF0805004490860BFF34F8FBFF337
:1021D0006F8FF0E7C800002004ED00E02DE9FF5FFD
:1021E00080460E469146DDE90E7A109CA9F1010069
:1021F000216B01EB800B2BF0070B7EB1002507E074
:10220000715D04F134004155705D00B902E06D1C50
:10221000102DF5D300BF002143200155052F00D319
:102220000427E762201D00F048F904F1180000F0CF
:1022300044F92461C7F10500A06164624146584633
:10224000039A00F007F92060BAF1000F01D0CAF834
:102250000040BDE8FF9F000010B5002407E004EB3C
:1022600084010F4A02EB810000F01AF9641C052C6E
:10227000F5D30C4800F014F90B4800F011F90B48A5
:1022800000F00EF90A4800F00BF90A4800F008F9CE
:1022900004480949086004480849086010BD000066
:1022A000C80000202C010020400100205401002023
:1022B000680100207C01002014000020180000208C
:1022C00010B50146164800E0006803688B42FBD356
:1022D0000246436813448B4204D143684C6823444C
:1022E000436001460A464B6813440468A34211D177
:1022F0000C4C03682468A34208D04B6804686468E7
:1023000023444B6003681B680B6005E0054B1B68AA
:102310000B6001E003680B60884200D0016010BDD3
:10232000500000205800002009480068006808B9E3
:10233000012000E0002020B14FF0FF300549086087
:1023400005E003480068C0680068024908607047FB
:10235000140000204000002000BFBF2080F311883F
:10236000BFF34F8FBFF36F8F00BF00BFFEE70000CA
:102370002DE9F04705464FF0000900F05FF93048BD
:10238000006808B9FFF7DEFE75B105F00700C0F17F
:102390001008C8F1FF30A84201D2012000E000205F
:1023A00008B9454400E00025012000EBE570002855
:1023B00041D0002D3FD02348006885423BD8224EB3
:1023C0003046046801E0264624686068A84202D2CC
:1023D00020680028F7D11A48006884422BD0306862
:1023E00000F10809206830606068401B102807D998
:1023F00067196068401B786065603846FFF760FFCA
:10240000104960680968081A0E49086008460068A3
:102410000E490968884203D20A4800680B490860DF
:10242000606840F00040606000202060084800685C
:10243000401C0749086000F079FA4846BDE8F0877B
:10244000580000205C0000205000002060000020A8
:1024500064000020001F4FF080730360001F21F014
:1024600001030360001F034B03601438026020382F
:10247000704700005923000801460A69D1E901307C
:102480009860D1E9010358605068884201D188689A
:102490005060002008611068401E1060106870478E
:1024A00000F1080141604FF0FF31816000F1080147
:1024B000C160016100210160704700210161704726
:1024C00010B502460B685C1C0CB9106907E002F1FC
:1024D000080000E04068446824689C42FAD94468D7
:1024E0004C604C68A160886041600A611468641C9B
:1024F000146010BD00BFBF2080F31188BFF34F8F61
:10250000BFF36F8F00BF03480068401C014908609B
:10251000704700006C00002006480068401E054916
:1025200008600846006820B9002080F3118800BFC9
:1025300000BF70476C00002070B506463546E6B116
:10254000083D2C466068C00FB8B12068A8B9606823
:1025500020F00040606000F071F808496068096888
:102560000844064908602046FFF7AAFE04480068B0
:10257000401C0349086000F0D9F970BD5C000020E0
:102580006800002000204FF0E021086188610248C7
:1025900048610720086170473F19010070B5044683
:1025A000002544B100F04AF800212046FFF7CAFC9C
:1025B00000F0BCF905463DB94FF080500349086072
:1025C000BFF34F8FBFF36F8F70BD000004ED00E0CD
:1025D0001CB5124800210B468022CDE9001010A145
:1025E000114800F097F80446012C14D100BFBF2019
:1025F00080F31188BFF34F8FBFF36F8F00BF4FF091
:10260000FF300A4908600120094908600020094993
:10261000086000F04BF8084800681CBD440000202A
:1026200049444C4500000000B5210008400000204E
:102630002C000020240000204800002002480068F0
:10264000401C0149086070474C0000201248006897
:1026500018B10120114908601DE000200F490860F1
:102660000F480068B0FA80F0C0F11F0101EB810251
:102670000C4B03EB820042685268426000F1080292
:102680004368934202D14268526842604268D2680D
:10269000054B1A6000BF70474C000020340000203A
:1026A00028000020C80000201000002010B50A48B3
:1026B000006840F47F00084908600846006840F060
:1026C0007F400860FFF75EFF002004490860FDF7C7
:1026D0007DFD002010BD000020ED00E06C0000201A
:1026E00010B500BFBF2080F31188BFF34F8FBFF339
:1026F0006F8F00BF00F052F818B14FF080500449BE
:10270000086000BF002080F3118800BF10BD0000EA
:1027100004ED00E02DE9FF4F85B08046894617465D
:10272000DDE912ABB800FFF723FE064676B14C2078
:10273000FFF71EFE04462CB14C212046FDF751FE4A
:10274000266304E03046FFF7F7FE00E000247CB18A
:102750000020CDE900ABCDE902403A46494640466B
:10276000089BFFF73BFD2046FFF74CFC012501E0ED
:102770004FF0FF35284609B0BDE8F08F05490968DC
:1027800009B9012005E00449096809B9022000E0FF
:10279000002070472C0000204C0000202DE9F04163
:1027A00000275748006800287ED156480068451C1D
:1027B000544805608DB95448D0F8008053480068EB
:1027C000514908605148C0F8008051480068401CD9
:1027D0004F490860FFF7A8FD00BF4E4800688542DA
:1027E00076D300BF48480068006808B9012000E0BF
:1027F000002020B14FF0FF304649086067E04248B2
:102800000068C068C4686668B54202D24148066084
:102810005DE06069D4E902128A60D4E902214A606D
:10282000211D42688A4201D1E16841600022626153
:102830000168491E0160A06A98B1A06AD4E9071234
:102840008A60D4E907214A6004F1180142688A428B
:1028500001D1216A41600022A2620168491E016023
:1028600000BF94F82C10012088402B4909680843C8
:1028700029490860E16A01EB8101284A02EB8101E4
:102880004868A0608268E260211D826851608160B2
:10289000E16A01EB8101214A02EB81026261E16A96
:1028A00001EB81011D4A00E022E052F82110491C91
:1028B000E26A02EB8202194B43F822101849E06ADF
:1028C0000968C96A88428DD901278BE700E000BFFB
:1028D00013480068C06A00EB8000104951F82000DE
:1028E000012800D901270F48006800B1012704E042
:1028F0000D480068401C0C4908603846BDE8F0816E
:102900004C000020240000201400002018000020AB
:10291000380000204000002028000020C8000020CF
:1029200010000020340000203000002070B500248A
:102930000026FFF7DFFD4B480068401E494908604C
:102940000846006800287DD147480068002879D0F3
:102950005BE04648C068C468A06AD4E907128A6090
:10296000D4E907214A6004F1180142688A4201D182
:10297000216A41600022A2620168491E016060690B
:10298000D4E902128A60D4E902214A60211D42681A
:102990008A4201D1E1684160002262610168491EFA
:1029A000016094F82C1001208840314909680843DF
:1029B0002F490860E16A01EB81012E4A02EB810197
:1029C0004868A0608268E260211D82685160816071
:1029D000E16A01EB8101274A02EB81026261E16A4F
:1029E00001EB8101234A52F82110491CE26A02EBF3
:1029F0008202204B43F822101F49E06A0968C96A25
:102A0000884202D301201D4908601848006808B9AF
:102A1000012000E0002000289BD00CB1FFF784FCCF
:102A20001748056865B100BFFFF7B8FE10B1012077
:102A3000124908606D1E002DF6D100201049086073
:102A40000E4800E009E0006838B1012630070D4962
:102A50000860BFF34F8FBFF36F8FFFF75DFD304608
:102A600070BD00004C000020200000205401002018
:102A700028000020C80000201000002034000020A2
:102A80003000002004ED00E00203040506070809F9
:102A90000A0B0C0D0E0F10100102000000000000C8
:102AA00000000102030406070809000000000102FB
:102AB00003043A7474003A7474003A7474000000A9
:102AC000E02A000800000020800000002801000823
:102AD000602B0008800000207038000044010008CE
:102AE0000000000010000000010000000024F400BD
:102AF00000000000000000000000000000000000D6
:102B000000000000000000000000000000000000C5
:102B100000000000000000000000000000000000B5
:102B200000000000000000000400000000000000A1
:102B30000000000000000000000000000000000095
:102B4000000000000000000000000000AAAAAAAADD
:102B50000000000000000000000000000000000075
:04000005080000ED02
:00000001FF
